:020000040800F2
:10000000C81700205D02000829190008DD14000847
:1000100025190008D1130008C11B000800000000CA
:10002000000000000000000000000000311900087E
:1000300045140008000000002D19000835190008BB
:1000400077020008770200087702000877020008AC
:10005000770200087702000877020008770200089C
:10006000770200087702000877020008770200088C
:10007000770200087702000877020008770200087C
:10008000770200087702000877020008770200086C
:10009000770200087702000877020008770200085C
:1000A000770200087702000877020008770200084C
:1000B000770200087702000877020008770200083C
:1000C000770200087702000877020008770200082C
:1000D00077020008B11A00087702000877020008CA
:1000E000770200087702000877020008000000008D
:1000F0000000000000000000000000000000000000
:100100007702000800F002F800F098F814A696E8CC
:10011000000CB244B344DA4501D100F08FF8BAE8DC
:100120000F000FA696E83000A5EB040504EB0607C8
:10013000AAEB0704A7F101074FEA15154FEA34149B
:10014000A4F10104AC4201D300F078F813F0010FE0
:1001500018BFFB1A43F0010300F001F8DBE7184772
:1001600010330000203300007047000000230024FB
:1001700000250026103A28BF78C1FBD8520728BFB7
:1001800030C148BF0B6070476E2900F0598170295B
:1001900000F09B82662903F0D980652903F0D680A0
:1001A000672903F0D380612903F0D28003681B0A1A
:1001B00028BF41F08001692900F00681642900F020
:1001C0000381752900F000816F2900F029827829C8
:1001D00000F06782E92900F0C381E42900F0C081C2
:1001E000F52900F0BD81EF2900F02682F82900F002
:1001F00066820368DB0928BF41F08001632900F0B3
:100200006787732900F06C87E32900F07787F3296B
:1002100000F07C87002070471FB500F0CDFF040080
:100220000020002103F07CF8401C606000200021C9
:1002300003F060F8E0601FBD10B510BD00F08EFF48
:100240001146FFF7E9FF01F0AFFF01F06BF803B4CF
:10025000FFF7F2FF03BC01F0B3F800000948804744
:1002600009480047FEE7FEE7FEE7FEE7FEE7FEE798
:10027000FEE7FEE7FEE7FEE704480549054A064BB0
:10028000704700003919000805010008C811002056
:10029000C8170020C8130020C81300201CB50C4646
:1002A000064B7B4469460090204600F0E2F8044685
:1002B0000020694600F0F0F820461CBDF301000064
:1002C00010B5431C02E010F8011B71B18107FAD18F
:1002D0004FF0013202C88C1A8C4314EAC211F9D0D3
:1002E000C01A0A0603D0C01E10BDC01A10BD0A04F1
:1002F00001D0801E10BD0902FCD0401E10BD704709
:100300007047704770B5044685690068C10601D51D
:10031000302600E02026C00707D070BDD4E90121B7
:1003200030469047206A401C20626D1EF6D570BD95
:1003300070B5044685690078C00707D170BDD4E95F
:10034000012120209047206A401C20626D1EF6D5B6
:1003500070BD09684A0501D540B27047C905FCD592
:1003600000B2704709684A0501D5C0B27047C90597
:10037000FCD580B2704770B50C460546012A05D001
:100380002878800600D5EA69002302E0012305E011
:100390005B1C934202D2E05C0028F9D1A869E61800
:1003A000C01AA861286A184428622846FFF7AAFFE5
:1003B00004E0D5E9012114F8010B9047B442F8D3C9
:1003C0002846FFF7B5FF70BD2DE9F0410646002431
:1003D00010687529314616A510D0FFF7BAFF00281E
:1003E00002DA404213A507E031688A0701D512A559
:1003F00002E0490704D511A5012401E0FFF7B2FF8F
:1004000000210A2206F1240709E0B0FBF2FCB0FB50
:10041000F2F302FB1C00303078541846491C0028C7
:10042000F3D123462A463046BDE8F04100F061BAD8
:10043000000000002D0000002B0000002000000044
:1004400011680268006A530501D508700AE0D305F7
:1004500001D5088006E0130603D5C217C1E90002E2
:1004600000E008600120704701694A1C02610878B9
:10047000704700B58FB0CDE90131002105910549E4
:100480007944CDE903101146684600F029F90FB010
:1004900000BD0000E5FFFFFF0A6802F8010B0A60DB
:1004A000704700002DE9FF5F15468A460446DFF8D5
:1004B000AC80F8440027D8E900103E46CDE9001092
:1004C00010E03AF816106A4602A800F023FE411C1C
:1004D00007D02178890603D5E269391891420DD8F1
:1004E0000744761C2078800602D5E069B84205DD15
:1004F000AE42E6DB3AF816000028E2D1A069C01B44
:10050000A0612046FFF7FEFED8E90010CDE90010FB
:10051000002017E03AF818106A4602A800F0FAFD29
:10052000B0F1FF3F81460BD000250DF1080B05E02F
:10053000D4E901211BF8050090476D1C4D45F7D308
:1005400008F10100B0428046E4DB206A38442062B2
:100550002046FFF7EDFEBDE8FF9F00009E2E000045
:100560002DE9F0418046D21D22F007020025D2E994
:100570000002F52915A614D0011E72F1000106DA59
:100580000023D0EB030063EB020211A608E0D8F8C9
:1005900000108B0701D50FA602E0490701D50EA672
:1005A00001251146002408F1240704E000F05CF95D
:1005B00030323A55641C50EA0102F7D12B463246DC
:1005C00021464046BDE8F04100F093B9000000002C
:1005D0002D0000002B0000002000000030B400219E
:1005E00000F1240408E002F00705D208303542EAA1
:1005F0004372DB086554491C52EA0305F3D10468D1
:10060000002310A2250708D504F020040C4304D0D1
:10061000C46901230CA2641EC46130BC00F069B936
:1006200010B5044621461068FFF79CFE024620469E
:10063000BDE810400023D1E7D21D22F00701D1E927
:100640000023CBE70000000030000000F0B40D46AE
:100650000188090502D5214C7C4402E01F4C7C44F2
:100660000E34002100F1240608E002F00F07120901
:10067000E75D42EA03721B097754491C52EA0307FB
:10068000F3D102780023120704D5702D06D009B1EA
:10069000022311342246F0BC00F02BB901231034A0
:1006A000F8E770B504460D4621461068FFF75AFE7C
:1006B000024629462046BDE870400023C6E7D21D09
:1006C00022F00703D3E90023C0E70368126843F070
:1006D000200303600823C3610023B7E7002D000057
:1006E0002DE9F05F894604464FF0000ADFF874B147
:1006F000FB44C0F820A02046E1688847002874D059
:10070000252806D0D4E901219047206A401C2062A8
:10071000F1E700265F462046E16888472028054625
:1007200007DB312D05D2781910F8200C08B10643EB
:10073000F1E7B00701D526F00406C4F81CA0002795
:10074000C4F818A02A2D09D0284602F0CBFD38B3F2
:1007500004EB8708303DC8F8185019E059F8041B1D
:10076000204604EB87029161E1688847012F054626
:1007700018D1E069002820DA26F020061DE0D8F81C
:10078000180000EB800005EB40003038C8F8180076
:100790002046E1688847054602F0A4FD0028EED116
:1007A000012F0AD02E2D08D12046E16888477F1CF2
:1007B0000546022F46F02006C4DBA069002803DAB4
:1007C000404246F00106A061F00701D026F0100675
:1007D0006C2D0BD0682D09D04C2D39D06A2D35D019
:1007E000742D35D07A2D33D016E038E0E1682F46ED
:1007F00020468847B842054609D16C2F26D04FF4D1
:100800008060E168064320468847054604E06C2F77
:100810001AD04FF4807006430DB3A5F1410019289A
:1008200002D8203546F400664A462946204626600E
:100830004E46FFF7A9FC80B101280BD0F61D26F02B
:10084000070000F1080956E74020E4E78020D8E7D8
:100850000020D6E706F104094DE7284652E7206A52
:10086000BDE8F09F902C000030B5B0F10A0271F1A4
:1008700000034FEA900E4EEA817EB0EB0E0061EB72
:1008800091014FEA101E4EEA017E10EB0E0041EB83
:1008900011114FEA102E4EEA016E10EB0E0041EBE3
:1008A00011214FEA104E4EEA014E10EB0E0041EBC3
:1008B0001141401841F100014FEAD00040EA417077
:1008C0004FEAD1014FEA810444EA907410EB8005AD
:1008D00044EB01046D1944EB0404521BA3414FF097
:1008E000000348BF0A3200D530BD401C41F1000171
:1008F00030BD2DE9F0470D4699469246044600F179
:1009000024080168880604D5E06921F010012160FF
:1009100000E00120A84201DD471B00E00027A1699B
:100920007A1902EB0900081AA0612078C00602D4E7
:100930002046FFF7E7FC002608E0D4E901211AF879
:1009400006009047206A401C761C20624E45F4DB6E
:100950002078C0060AD52046FFF7D4FC06E0D4E98B
:10096000012130209047206A401C2062381EA7F1E8
:100970000107F4DC07E0D4E9012118F805009047ED
:10098000206A401C2062281EA5F10105F3DC2046E8
:10099000FFF7CEFC2078000602D50220BDE8F087E4
:1009A0000120FBE72DE9FF4F0C461E464FF0FF37B5
:1009B0008BB0D2E90001DDF860800A908A46C1F36D
:1009C0000A5505B93D46002108464FF00000BAF12E
:1009D000000F00F4400005DA00EB80004FF4400106
:1009E00001EA50004FEA9059B9F1010F00DDB94614
:1009F0000A9850EA4A000ED044F61050A5F2FF358E
:100A000045432F14B8F1000F1ED07542291E1EDD7C
:100A1000C9F100021CE0B8F1010F4FF0000001D055
:100A2000302103E0F24305E02154401CB042FBDBDF
:100A300030460022002121540B99C1F80880C1E9F9
:100A400000200FB0BDE8F08FBD1B6D1CDEE74A46ED
:100A500000DA694206A800F0F3FB06AB93E8070052
:100A600003AB83E8070050460A9902F05EF88DE870
:100A70000700A0F500501F3800900398002D0ADDF4
:100A800042F21F014A460844002303A90390684626
:100A900002F0C8FA09E0A0F500504A461F380023CA
:100AA00003A90390684602F0D2FA8DE8070000041B
:100AB000000C03D04FF0FF30410800E01046B8F1C1
:100AC000000F03D00022009215461EE0751E05D4CB
:100AD000FFF7CAFE303262556D1EF9D5B3460122CA
:100AE000084302D000227F1C04E02078302801D186
:100AF00000227F1E002A099784D01DE0112D07DAFD
:100B0000FFF7B2FE303262556D1C50EA0102F5D19A
:100B1000084302D00098C8B10EE00021681E05E02D
:100B2000235C625C63542254401E491C8142F7DB03
:100B3000AB46A81B401E0990002004F80B000B9840
:100B4000099AC0F80880C0E9002B7AE711264FF017
:100B5000000857E72DE9F04F88460446D21D22F0E1
:100B6000070191B0D1E90001CDE90A0102F0A6FB2D
:100B700002460B98C00F01D02D2007E020688107A6
:100B800001D52B2002E0202101EAC000032A0990B0
:100B900001D0072A05DB03464146204600F010FB42
:100BA0000BE12078800601D5E06900E00620B8F16D
:100BB000650F814606D0B8F1660F18D0B8F1670FFF
:100BC00070D131E00020B9F1110F009001DB112349
:100BD00001E009F101030AAA01A90CA8FFF7E2FE4E
:100BE000DDE90C70002609F10105834647E001208C
:100BF0004B4600904FF000470AAA01A90CA8FFF746
:100C0000D1FEDDE90DB00C995D46002610B909F161
:100C100001000D18B9EB050003D4C0F1FF3609F14E
:100C20000105A5EB09002BE0B9F1010F01DA4FF046
:100C300001090020B9F1110F0090484601DD112390
:100C400000E003460AAA01A90CA8FFF7ABFEDDE904
:100C50000C704D4600268346207800070AD4AB4529
:100C600000DA5D4601A8012D04DD411911F8011CCF
:100C7000302907D04F4502DA17F1040F04DA0120BA
:100C800082460FE06D1EEEE7002F02DCED1B3E44B6
:100C900003E0781CA84200DD7D1CB81B00F1010AAE
:100CA0004FF000472078000703D4AA4501DB4FF03E
:100CB000FF3A0021B7F1004F0DF143088DF84310C2
:100CC00024D002202B23002F01DA7F422D230A217A
:100CD000021EA0F1010000DC5FB197FBF1FC97FB65
:100CE000F1F201FB1C7C17460CF1300C08F801CD29
:100CF000EEE7A8F1010003702188090501D545211F
:100D000000E06521A0F1010800F8011C09980FA975
:100D1000A1EB0807FF1D00B10120411901EBEA70AA
:100D2000A1693844081A401EA0612078C00602D488
:100D30002046FFF7E7FA099828B1D4E90121904746
:100D4000206A401C20622078C00622D52046FFF78A
:100D5000D9FA1EE0002E04DBB34502DD01A8805D58
:100D600000E03020D4E901219047206A401C206235
:100D7000761CAAF101005FEA000A0AD100F01CFA11
:100D8000C0680168405CD4E901219047206A401C9A
:100D90002062281EA5F10105DCDC07E0D4E9012171
:100DA00018F8010B9047206A401C2062381EA7F1FA
:100DB0000107F3DC2046FFF7BBFA032011B041E640
:100DC0002DE9F04F04460D46D21D22F0070089B0F0
:100DD000D0E900974846394602F070FA0246F80F0B
:100DE00001D02D2307E02068810701D52B2302E0E5
:100DF000202101EAC0038DF820300BB1012000E072
:100E00000020032A824601D0072A04DB2946204617
:100E100000F0D6F93FE12078800601D40D2500E0EE
:100E2000E569C7F30A560D2D49DA00214FEA175B31
:100E300008464FF00000002F00F4400007DA00EBF6
:100E400080004FF4400100EBD07001EA6000811592
:100E5000012901DD4FF0FF3100224FEA850CBCF182
:100E6000180F06D31346ACF118004FF08052C24061
:100E700003E04FF4801323FA0CF30CF10C0CBCF1DB
:100E8000200F04D3ACF1200C09FA0CF001E007FAB2
:100E90000CF000294FF0004801DD18B90FE00ED129
:100EA00040450CD319EB02095F4121B9404502D1FD
:100EB0009F4329EA0209BBEB175F00D0761C20880C
:100EC000000502D57B48784402E07A487844193816
:100ED00008AA302302F80A30037C0AF10101002E2F
:100EE0000AF1020A53546A4602DC4FF0300101E075
:100EF0004FF031014FF001088DF8001002D0A6F23A
:100F0000FF3603E059EA470100D06B4E002D02DCAA
:100F10002178090704D54FF002082E218DF8011021
:100F2000C44600210BE0C7F303433F01C35C491CE7
:100F30006D1E02F80830052908F1010801DA002DBC
:100F4000F1DC00210CE000EB1973491C1B786D1ECD
:100F5000082902F808304FEA091908F1010801DAF6
:100F6000002DF0DC21688B0602D516E0A8F10108FF
:100F7000E04505DD02EB080313F8013C302BF5D00A
:100F8000B8F1000F09DD02EB080313F8013C2E2B2A
:100F900003D1090701D4A8F10108002D05DD3E2188
:100FA00002F808106D1E08F10108407C002E02F8BE
:100FB000080008F1010804DA2D20764202F8080042
:100FC00002E02B2002F808000A214FF47A708642D2
:100FD00008F101080BDB96FBF0F3303302F8083020
:100FE00096FBF0F308F1010800FB136601E0642EA4
:100FF0000CDB642096FBF0F3303302F8083096FBEC
:10100000F0F308F1010800FB136601E00A2E06DB8D
:1010100096FBF1F0303002F8080008F1010896FB69
:10102000F1F001FB1060303002F80800A16908F10E
:10103000010808EB050202EB0A00081AA0612078FB
:10104000C00602D42046FFF75DF9216A08AE01EB25
:101050000A00206204E0D4E9012116F8010B904750
:10106000BAF1010AF7D22078C00602D52046FFF770
:1010700049F96E4609E016F8010B3E280FD0D4E975
:1010800001219047206A401C2062B8F10108F2D289
:101090002046FFF74DF909B00320BDE8F08F206A24
:1010A0002844206203E0D4E90121302090476D1EDE
:1010B000EBD3F8E7DE24000002FCFFFF10B5436924
:1010C00013B1AFF3008001E0FFF755F9012010BD27
:1010D000127800F124010A7000224A700122EDE723
:1010E00011684FF0FF32E9E710B5436913B1AFF370
:1010F000008001E0FFF7D6F9012010BD128800F151
:10110000240182840022C2840122EDE711684FF09D
:10111000FF32E9E72DE9F04116460C46054600F09E
:1011200043F8036893F80101012807D0FF2C12D877
:10113000185D80B101202C70BDE8F081D3F8070163
:101140003246214603F20713C7182846BC46BDE8BD
:10115000F041002360474FF0FF30EDE7754600F0A7
:10116000EBF8AE4605006946534620F00700854679
:1011700018B020B5FFF780F8BDE820404FF000061A
:101180004FF000074FF000084FF0000BAC46ACE802
:10119000C009ACE8C009ACE8C009ACE8C00921F05E
:1011A00007018D467047000010B500F005F8001DDE
:1011B00010BD00BF6D2100000048704720000020D6
:1011C0002DE9F0411F46044603260168072A01F471
:1011D000006004DB08B116A505E016A503E008B120
:1011E00015A500E015A521F010002060A069C01E23
:1011F000A0610FB1401EA0612046FFF783F84FB1F8
:10120000D4E9012138469047206A401C2062C01C66
:10121000206206E0206AFAE7D4E9012115F8010B03
:101220009047761EF8D22046FFF782F8BDE8F0819D
:101230004E414E006E616E00494E4600696E66007A
:101240002DE9F047814616468AB0354878440DC8E6
:101250008DE80D0032487844801C03AC0DC884E84A
:101260000D0041F69B300844372190FBF1F290FBD2
:10127000F1F5A5F1800501FB12041B3C02D5644287
:10128000012000E00020DFF898A080460027FA4403
:10129000AAF1BE0A0EE0E0070AD03246684607EB24
:1012A000470101230AEB810101F0D1FE8DE807001F
:1012B00064107F1C002CEED1194F7F44AE3F19E023
:1012C000E80715D007EB04100DF1180A90E80E009E
:1012D0008AE80E00C068F04201D1981908903246A1
:1012E000012306A903A801F0B2FE03AB83E80700BF
:1012F0006D10641C002DE3D14FF0010332466946A6
:10130000B8F1000F03A802D001F08CFE01E001F05B
:101310009EFEC9E90001C9F808200AB0BDE8F087BF
:10132000E821000010B50446AFF300802046BDE878
:101330001040FEF78CBF00000048704700000020FE
:101340004FF0013C50F8042B51F8043B9A4221D154
:10135000A2EB0C03934313EACC1317D150F8042BE0
:1013600051F8043B9A4215D1A2EB0C03934313EAC4
:10137000CC130BD150F8042B51F8043B9A4209D1FD
:10138000A2EB0C03934313EACC13DBD04FF0000025
:10139000704700BFD01A01BAB1FA81F101F018010B
:1013A00022FA01F0CB40DBB2C0B2C01AC1F1200179
:1013B0002CFA01F3D11A914311EAC311E6D1704717
:1013C00001491820ABBEFEE726000200704700006E
:1013D000FFE7FEE780B58AB04FF4A06001F0BEF8E9
:1013E0000020C4F2020001900421029100F0ACFC44
:1013F0000198029943F60402C4F20102039200220A
:10140000049240F2C003C2F200030593069240F238
:10141000011307934FF4005308938DF82420012300
:101420008DF825308DF8262003AA00F0D3FC019812
:10143000029900F06DFC0198029900F04DFC0AB091
:1014400080BD0000FFE7FEE780B5042001F050F901
:1014500080BD000080B582B0ADF80600FFE7BDF8A2
:101460000600411EADF8061028B1FFE74FF47A7070
:1014700000F004F8F3E702B080BD000081B0ADF8E1
:101480000200BDF802006C2148434EF21401CEF276
:10149000000108604EF21801CEF200010020086041
:1014A0004EF21001CEF20001086840F00100086021
:1014B000FFE74EF21000CEF200000068C0030028E3
:1014C00001D4FFE7F5E74EF21001CEF20001086803
:1014D00020F00100086001B070470000FFE7FEE760
:1014E00080B586B040F2036001F038F840F6004065
:1014F000C4F20100049014210191032202924023BE
:10150000039300F087FD0199029A049880230593C4
:1015100000F080FD0399049800F074FD049805998B
:1015200000F070FD06B080BD80B58AB08DF8270050
:1015300000208DF8250007208DF82600FFE79DF993
:10154000260000282BD4FFE740F60040C4F201003B
:1015500008904021079100F04DFD0220FFF78EFF1B
:101560000799089800F04EFD0898802100F006FECB
:1015700058B1FFE79DF92610012000FA01F19DF80E
:10158000250008438DF82500FFE70220FFF776FFCE
:10159000FFE79DF8260001388DF82600CFE740F6DA
:1015A0000040C4F20100402100F024FD0220FFF7BA
:1015B00065FF9DF82700F0B1FFE740F60040C4F258
:1015C000010004908021059100F014FD0498402151
:1015D000039100F017FD02200690FFF74FFF0399DB
:1015E000049800F007FD0498059900F00BFD06989B
:1015F000FFF744FF18E040F60040C4F201000090FD
:10160000802100F0FFFC00984021019100F0FAFCDD
:1016100002200290FFF732FF0098019900F0EAFCE7
:101620000298FFF72BFFFFE79DF825000AB080BD69
:1016300080B584B08DF80F0007208DF80E00FFE70D
:101640009DF90E00002834D4FFE740F60040C4F2B4
:101650000100402100F0CEFC9DF80F009DF90E1016
:10166000C840C00740B1FFE740F60040C4F20100A7
:10167000802100F0C7FC07E040F60040C4F2010002
:10168000802100F0B7FCFFE702200290FFF7F6FE92
:1016900040F60040C4F20100402100F0B3FC029883
:1016A000FFF7ECFEFFE79DF80E0001388DF80E0005
:1016B000C6E740F60040C4F201000190402100F06E
:1016C00099FC0198802100F09DFC04B080BD0000D1
:1016D00080B584B040F60040C4F201000290402181
:1016E000039100F08FFC02988021009100F08AFCA9
:1016F00002200190FFF7C2FE0099029800F07AFCE8
:101700000198FFF7BBFE0298039900F073FC04B048
:1017100080BD000080B582B040F60040C4F20100F8
:101720000090402100F06EFC00988021019100F0B3
:1017300061FC0220FFF7A2FE0098019900F062FC14
:1017400002B080BD80B584B0ADF80C00FFE7BDF8F5
:101750000C000138ADF80C000220FFF78FFEFFE708
:1017600040F60040C4F20100802100F007FD014670
:101770000020029049B1FFE7BDF90C100020B1F143
:10178000FF3FC8BF01200290FFE70298C007002872
:10179000DDD1FFE7BDF90C00B0F1FF3F04DCFFE74E
:1017A00001208DF80F0022E040F60040C4F2010055
:1017B0000190402100F026FC0220FFF75FFE019817
:1017C000802100F0DBFC20B1FFE702208DF80F0044
:1017D0000DE040F60040C4F20100402100F00AFC98
:1017E0000220FFF74BFE00208DF80F00FFE79DF869
:1017F0000F0004B080BD000080B584B08DF80E00ED
:101800000291ADF80620FFF763FFA020FFF710FF5D
:101810006420FFF797FF20B1FFE701208DF80F004C
:1018200044E09DF80E00FFF703FF6420FFF78AFFF6
:1018300020B1FFE702208DF80F0037E0FFF748FFE7
:10184000A120FFF7F5FE6420FFF77CFF20B1FFE742
:1018500003208DF80F0029E000208DF80500FFE738
:101860009DF80500BDF80610013988420EDAFFE741
:101870000120FFF759FE02999DF805208854FFE7E3
:101880009DF8050001308DF80500E9E70020009083
:10189000FFF74AFE029ABDF80610114401F8010C48
:1018A000FFF738FF00988DF80F00FFE79DF80F0055
:1018B00004B080BD80B582B08DF806008DF80510AB
:1018C000FFF706FFA020FFF7B3FE6420FFF73AFF03
:1018D00020B1FFE701208DF807001FE09DF806000A
:1018E000FFF7A6FE6420FFF72DFF20B1FFE70220DF
:1018F0008DF8070012E09DF80500FFF799FE6420BF
:10190000FFF720FF20B1FFE703208DF8070005E077
:10191000FFF700FF00208DF80700FFE79DF80700A4
:1019200002B080BDFFE7FEE7FFE7FEE7FFE7FEE767
:10193000FFE7FEE77047000080B584B041F2000188
:10194000C4F20201086840F001000860FFE741F2BC
:101950000000C4F2020000688007002801D4FFE7FD
:10196000F5E741F20400C4F20200006800F00C0048
:10197000082847D1FFE7FFE700200390FFE703981F
:101980004F2805D8FFE7FFE7039801300390F6E7FB
:1019900041F20401C4F2020108680290029820F0AA
:1019A000F0000290029840F08000029002980860D7
:1019B00000200390FFE703984F2805D8FFE7FFE7D3
:1019C000039801300390F6E741F20401C4F20201EA
:1019D00008680290029820F0F0000290029840F00F
:1019E000900002900298086000200390FFE703989F
:1019F0004F2805D8FFE7FFE7039801300390F6E78B
:101A0000FFE7FFE741F20401C4F202010191086817
:101A100020F003000860642000F02EF9019B41F2E1
:101A20000001C4F2020108684FF6FF72CFF6F662B9
:101A300010400860186840F20C0CCEF6FF0C00EA6B
:101A40000C001860086810400860086820F48020C6
:101A5000086018684FF6FF7CCFF2007C00EA0C00AB
:101A6000186008681040086041F20801C4F20201E1
:101A70004FF41F00086000F037FE4FF000600021B7
:101A800000F08AFC04B080BD40F26001C2F20001A7
:101A9000081D4865886501F14C00C8654A6D40F233
:101AA000C000C2F2000010600020088070470000F3
:101AB00080B586B043F60000C4F2010040F2043164
:101AC000C0F2040100F0A6FF002877D0FFE743F63C
:101AD0000000C4F2010003900421049100F06AFFA9
:101AE000039800F0D9FE04990020C4F2020000F02F
:101AF00069FA024640F26001C2F2000105910888CD
:101B0000801A00F201100880088840F2C002C2F278
:101B10000002104401384A6D5060486D0830486535
:101B2000486DC96D884207D1FFE740F26001C2F2FB
:101B30000001081D4865FFE740F26000C2F20000A6
:101B40000088C0F50060B0F5807F0DDBFFE740F254
:101B50006001C2F200010A8840F2C000C2F2000037
:101B60001044496D08600CE040F26001C2F20001CF
:101B70004A6D40F2C000C2F20000106000200880F0
:101B8000FFE70020C4F2020001900421029100F05E
:101B900087F80198029940F2011200F0F7F90198D4
:101BA000029940F26002C2F20002526D126800F027
:101BB000B5F90198029900F08FF8FFE706B080BDF3
:101BC000FFE7FEE780B586B0059040F20E6000F0BA
:101BD000C5FC40F2026000F0C1FC40F60000C4F217
:101BE000010000901821032201924FF4007300F0CD
:101BF00011FA0098019A042102914FF4806300F0D9
:101C000009FA43F60000C4F20100049000F058FE07
:101C10000498059900F0DAFD04980021039100F082
:101C200029FF0399049800F071FF0399049800F0CC
:101C300047FF0498082100F053FF0299049800F030
:101C400029FF0498402100F097FE4FF4A06000F0B7
:101C500095FB039A2520114600F016FB04984FF4DB
:101C6000417100F0C5FEFFF70FFFFFF7B3FB0498CB
:101C700000F096FE06B080BD82B00190002000907A
:101C8000FFE70098019901EB8101B0EB410F05D20C
:101C9000FFE7FFE7009801300090F2E702B07047DD
:101CA00080B582B001908DF8031001989DF8031063
:101CB00000F04EF910B9FFE7FFE7FEE701989DF845
:101CC000031001EB810100EB8101886820F0010025
:101CD000886002B080BD000080B582B001908DF8B0
:101CE000031001989DF8031000F032F910B9FFE7D6
:101CF000FFE7FEE701989DF8031001EB810100EB7F
:101D00008101886840F00100886002B080BD000059
:101D100080B582B001908DF8031001989DF80310F2
:101D200000F016F910B9FFE7FFE7FEE701989DF80C
:101D3000031001EB810100EB8101886820F0200095
:101D4000886002B080BD000080B582B001908DF83F
:101D5000031001989DF8031000F0FAF810B9FFE79E
:101D6000FFE7FEE701989DF8031001EB810100EB0E
:101D70008101886820F00100886001989DF80310B7
:101D800001EB810100EB81010020886001999DF841
:101D9000032002EB820201EB8201C86001999DF8E9
:101DA000032002EB820201EB8201086101999DF898
:101DB000032002EB820201EB820148619DF80300DF
:101DC00081000F2000FA01F2019948681043486031
:101DD00002B080BD80B584B003908DF80B100192E5
:101DE00003989DF80B1000F0B3F810B9FFE7FFE778
:101DF000FEE70198006803999DF80B2002EB820230
:101E000001EB820108610198806803999DF80B201D
:101E100002EB820201EB820148610198008A03997A
:101E20009DF80B2002EB820201EB8201C86003984F
:101E30009DF80B1001EB810100EB810080680090A0
:101E4000009820F47C50009001994868CA6849695C
:101E500010430143009808430090009803999DF8AF
:101E60000B2002EB820201EB820188600198007E68
:101E700001280CD1FFE703989DF80B1001EB8101BD
:101E800000EB8101886840F0400088600BE0039817
:101E90009DF80B1001EB810100EB8101886820F0B7
:101EA00040008860FFE70198407E01280CD1FFE7E1
:101EB00003989DF80B1001EB810100EB810188680C
:101EC00040F0800088600BE003989DF80B1001EB58
:101ED000810100EB8101886820F080008860FFE7C5
:101EE0000198807E60B9FFE703989DF80B1001EB25
:101EF000810100EB8101886820F0100088600BE010
:101F000003989DF80B1001EB810100EB81018868BB
:101F100040F010008860FFE704B080BD80B584B059
:101F200003908DF80B10019203989DF80B1000F0B0
:101F30000FF810B9FFE7FFE7FEE7019803999DF856
:101F40000B2002EB820201EB8201486104B080BDEC
:101F500082B001908DF8031001208DF802000198E5
:101F600040F20041C4F2020188420AD1FFE79DF825
:101F70000300052804DBFFE700208DF80200FFE7DF
:101F8000FFE79DF8020002B07047000080B584B002
:101F900003908DF80B10019203989DF80B10FFF73A
:101FA000D7FF10B9FFE7FFE7FEE7BDF8040003998C
:101FB0009DF80B2002EB820201EB8201C86004B0A5
:101FC00080BD000080B582B001908DF803100198AB
:101FD0009DF80310FFF7BCFF10B9FFE7FFE7FEE72E
:101FE00001989DF8031001EB810100EB8100C068AE
:101FF00002B080BD82B001900091009801994861C3
:1020000002B0704782B00190009100980199086178
:1020100002B0704787B006900591049203930020A8
:1020200001900090059800F00F0001909DF81400B9
:10203000C006002805D5FFE70499019808430190E0
:10204000FFE70020ADF80A00FFE7BDF80A00072807
:1020500042D8FFE7BDF80A100398C840C007A0B3F4
:10206000FFE7069800680090BDF80A0081000F2085
:1020700000FA01F10098884300900198BDF80A1019
:10208000890000FA01F1009808430090059828287B
:1020900009D1FFE7BDF80A100120884003990840E4
:1020A000069948610DE00598482809D1FFE7BDF879
:1020B0000A10012088400399084006990861FFE74B
:1020C000FFE7009806990860FFE7FFE7BDF80A0000
:1020D0000130ADF80A00B8E70820ADF80A00FFE7C4
:1020E000BDF80A000F2846D8FFE7BDF80A1003988C
:1020F000C840C007C0B3FFE7069840680090BDF82D
:102100000A006FF01F0101EB80020F2000FA02F2BB
:102110000098904300900198BDF80A2001EB8201DD
:1021200000FA01F10098084300900598282809D189
:10213000FFE7BDF80A10012088400399084006997E
:1021400048610DE00598482809D1FFE7BDF80A105D
:10215000012088400399084006990861FFE7FFE7DE
:10216000009806994860FFE7FFE7BDF80A000130D4
:10217000ADF80A00B4E707B07047000083B00190E3
:102180000091019880680099084204D0FFE701207F
:102190008DF80B0003E000208DF80B00FFE79DF8A1
:1021A0000B0003B07047000080B584B0002002909F
:1021B00003904FF46120FFF705FD43F26340C0F642
:1021C0000000302319461A4600F0ACFAFFF73CF93C
:1021D000FFF786F9029841F2C001C2F200010880BF
:1021E000FFE741F2C000C2F200000088FF2814DCC3
:1021F000FFE741F2C000C2F2000001780846FFF795
:1022000059FB0520FFF726F9FFE741F2C001C2F2B2
:102210000001088801300880E3E741F2C201C2F200
:102220000001002001904FF48072FFF7E5FA019859
:1022300041F2C001C2F200010880FFE741F2C00094
:10224000C2F200000088FF281CDCFFE741F2C0005A
:10225000C2F20000018841F2C200C2F20000425CFA
:1022600043F25040C0F6000000F05CFA6420FFF733
:10227000F1F8FFE741F2C001C2F200010888013025
:102280000880DBE7FFE7FEE780B586B08DF8170032
:102290008DF816108DF81520002004900390029000
:1022A0004EF60C50CEF20000006800F4E0600146EB
:1022B0000191B0F5407F27D0FFE70198B0F5806F1E
:1022C0001DD0FFE70198B0F5A06F14D0FFE701988B
:1022D000B0F5C06F0AD0FFE70198B0F5E06F18D1F4
:1022E000FFE700200390042002901AE001200390F1
:1022F0000320029015E002200390029011E00320D9
:102300000390012002900CE0042003900020029032
:1023100007E04FF4A06000F031F802200390029033
:10232000FFE79DF816000399C1F10401884004906D
:102330009DF815000299C1F104020F21D14001401E
:1023400004980843049004980001049004989DF9AF
:1023500017104EF20042CEF2000288549DF9171079
:1023600001F01F02012090404A114EF20011CEF2FE
:10237000000141F8220006B080BD000081B000904D
:1023800000980021C0F2FA5108434EF60C51CEF2EB
:102390000001086001B0704782B00190009101987F
:1023A00000994FF68072C1F6FF72114008434EF655
:1023B0000851CEF200010860BFF34F8F02B07047A2
:1023C00097B08DF85B000020149040F20671C0F6C3
:1023D0000811099140F20121C0F2034108910790D0
:1023E0000690059104900391029041F20400C4F21A
:1023F00002000068C0F3810015901598019040B16B
:10240000FFE7019801280AD0FFE7019802280CD0C5
:102410005AE041F20020C0F27A0013905AE041F2F3
:102420000020C0F27A00139054E041F20400C4F29C
:102430000200006800F480300F900F98B0F5803FE4
:1024400019D1FFE741F20020C0F27A000C9041F26E
:102450000400C4F20200006800F400300E900E98F0
:10246000B0F5003F06D1FFE740F60010C0F23D0096
:102470000C90FFE705E040F60010C0F23D000C9024
:10248000FFE741F20400C4F202000168C1F3834196
:102490000D9100680001002805D5FFE70D9840F078
:1024A00010000D90FFE70D980E2804D8FFE70D9857
:1024B00002300D9003E00D9801300D90FFE70C986D
:1024C0000D994843139005E041F20020C0F27A00D4
:1024D0001390FFE741F20400C4F202000168C9B2A0
:1024E00009090B910B9A06A9895C0A9113990A9A1A
:1024F000D14012910168C1F302210B910B9A04A9FA
:10250000895C0A9112990A9AD14011910068C0F32E
:10251000C2200B900B9902A8405C0A9012980A996D
:10252000C84010909DF85B0001460091032810D828
:102530000099DFE801F00205080B1398149009E0F8
:102540001298149006E01198149003E010981490DB
:1025500000E0FFE7149817B07047000081B0ADF8B5
:102560000200BDF8020000F01F02012101FA02F38F
:10257000810941F20002C4F20202885818438850CF
:1025800001B0704781B0ADF80200BDF8020000F064
:102590001F02012101FA02F3810941F20002C4F293
:1025A000020288589843885001B0704781B0ADF856
:1025B0000200BDF8020000F01F02012101FA02F33F
:1025C000810941F20002C4F202028858184388507F
:1025D00001B0704785B000200490039041F20001E3
:1025E000C4F20201086840F480300860FFE70498F4
:1025F0000130049041F20000C4F20200006800F4CF
:1026000000300390FFE703990020019041B9FFE7F4
:1026100004984FF6FF71401A18BF01200190FFE7A0
:102620000198C0070028E2D1FFE741F20000C4F2A0
:10263000020000688003002802D4FFE7FFE7FEE7FE
:1026400041F20401C4F202010091086808600868C0
:102650000860086840F480600860086820F4403032
:102660000860086840F44030086008684FF6FF7260
:10267000CFF2C3721040086008680022C0F628023A
:102680001043086041F20001C4F20201086840F002
:1026900080700860FFE741F20000C4F202000068A9
:1026A0008001002801D4FFE7F5E741F20401C4F2FC
:1026B000020108680290029820F00300029002983C
:1026C00040F00200029002980860FFE741F2040027
:1026D000C4F20200006800F00C00082801D0FFE7F7
:1026E000F4E705B07047000080B5FFF773FF80BDC9
:1026F00081B000900098042809D1FFE74EF2100144
:10270000CEF20001086840F00400086008E04EF2D4
:102710001001CEF20001086820F004000860FFE715
:1027200001B0704783B080B585B0099308920791D6
:10273000049007A802900499029A40F6C000C2F2E1
:102740000000FDF7ABFD0020ADF80E00FFE7BDF87F
:102750000E00019040F6C000C2F20000FDF7B0FD8F
:1027600001460198884220D2FFE7FFE743F60000C8
:10277000C4F20100072100F01DF9012801D0FFE794
:10278000F4E7BDF80E1040F6C000C2F20000415C54
:1027900043F60000C4F2010000F086F8FFE7BDF840
:1027A0000E000130ADF80E00D1E7FFE743F6000060
:1027B000C4F20100072100F0FDF8012801D0FFE775
:1027C000F4E705B0BDE8804003B0704780B588B03D
:1027D00007900691002005900490039002900798BE
:1027E000019044F20041C4F20001884225D0FFE785
:1027F000019844F60001C4F20001884222D0FFE7AC
:10280000019844F60041C4F2000188421FD0FFE75E
:10281000019845F20001C4F2000188421CD0FFE794
:10282000019843F60001C4F20101884219D1FFE783
:102830000320FFF7C5FD059014E00220FFF7C0FD5F
:1028400005900FE00220FFF7BBFD05900AE0022093
:10285000FFF7B6FD059005E00220FFF7B1FD0590FA
:1028600000E0FFE70598069900EB5100B0FBF1F09E
:10287000029002984FF6F07108400490029800F020
:102880000F000390BDF81000BDF80C100843079925
:10289000886008B080BD000081B00090009840685A
:1028A0006FF35F2001B0704782B00190ADF8021065
:1028B000BDF802006FF35F200199486002B07047D5
:1028C00080B588B007900798069044F20041C4F2A2
:1028D0000001884229D0FFE7069844F60001C4F2BF
:1028E000000188422AD0FFE7069844F60041C4F26E
:1028F000000188422BD0FFE7069845F20001C4F2A0
:10290000000188422CD0FFE7069843F60001C4F28C
:10291000010188422DD1FFE740F20E300590FFF70C
:1029200045FE0598FFF72EFE24E040F2114004908A
:10293000FFF73CFE0498FFF725FE1BE040F2124033
:102940000390FFF733FE0398FFF71CFE12E040F2FE
:1029500013400290FFF72AFE0298FFF713FE09E0EA
:1029600040F214400190FFF721FE0198FFF70AFEA4
:1029700000E0FFE708B080BD82B001908DF8031041
:102980000199486920F0400048619DF8030000F07B
:102990004002019948691043486102B07047000045
:1029A00081B000900099C86840F40050C86001B040
:1029B0007047000083B001908DF8031001989DF8D6
:1029C0000310890940589DF8031001F01F01C84009
:1029D000C00720B1FFE701208DF80B0003E00020C5
:1029E0008DF80B00FFE79DF80B0003B07047000067
:1029F00082B001900091009800F01F02012101FABD
:102A000002F3019980B2820988581843885002B0B5
:102A10007047000085B00390029100200190009063
:102A20000398BDF8081089094058029901F01F0267
:102A3000012101FA02F2104001900398029A920DCE
:102A40008058029AC2F304429140084000900098D6
:102A500038B1FFE7019820B1FFE701208DF813009E
:102A600003E000208DF81300FFE79DF8130005B088
:102A70007047000082B0019000910199C86820F46D
:102A8000C060C860009A0199C8681043C86002B06D
:102A90007047000083B002900191002000900298DE
:102AA000C0680090009820F0040000900199009800
:102AB0000843009000980299C86003B07047000076
:102AC00082B0019000910199086920F4405008619A
:102AD000009A019908691043086102B0704700002C
:102AE00083B002900191002000900298C06800908D
:102AF000009820F008000090019900980843009089
:102B000000980299C86003B07047000082B001903D
:102B100000910199C86820F48050C860009A01991A
:102B2000C8681043C86002B070475FEA400C08BF35
:102B300091F0000F4FEA8C234FEAC12243EA515132
:102B40004FEA1C5018BF00F5F0404FEA300018BFA4
:102B500041F000415FEA6C5C00F02980BCF1FF3F6E
:102B600008BF40F080407047130C06BF12044FF0BE
:102B7000100C4FF0000C130E04BF12020CF1080CE5
:102B8000130F04BF12010CF1040C930F04BF920049
:102B90000CF1020CD30F04BF52000CF1010C1146D2
:102BA0004FF00002A0F11F00A0EB0C00704711F0E5
:102BB000004F08BF704731F000413FF4D5AF0B0C18
:102BC00006BF09044FF0100C4FF0000C0B0E04BFB1
:102BD00009020CF1080C0B0F04BF09010CF1040CE5
:102BE0008B0F04BF89000CF1020CCB0F04BF49000E
:102BF0000CF1010CCCF1200322FA03F341EA0301AA
:102C000002FA0CF2A0EB0C0000F10100704700008A
:102C100023F07F4720F07F4C80EA030000F0004063
:102C2000ACEB070303F57C5303F1FF032DE9804967
:102C300009B44FEA144324EA03484FEA154B25EA46
:102C40000B4E0FF2042606EB13273E7803FB0667B4
:102C5000C7F5000707FB06F64FEAD64606F102065F
:102C60004FEA543707FB066CCCF1005C4FEA1C4777
:102C70002CEA074C0CFB06F507FB06F404EB1546A3
:102C80004FEA961649085FEA320234BF00204FF03F
:102C900000404FEAD13706FB07FC4FEA1C4C0CFB07
:102CA0000BF7D21B03FB0CF761EB07010CFB0EF7D4
:102CB000B0EB074072EB17420CFB08F734BFA2EBF6
:102CC0000742B2EB074261EB17414FEA0C444FEA6F
:102CD000910706FB07FC4FEA1C4C0CFB0BF7B0EB13
:102CE000C74072EB573203FB0CF734BFA2EBC7426D
:102CF000B2EBC74261EB57310CFB0EF7B0EBC700EC
:102D000072EB57720CFB08F734BFA2EBC702B2EBB1
:102D1000C70261EB57714FEA816141EA92114FEAB4
:102D2000826242EA90124FEA806004EBCC04039F77
:102D30004FEAD13706FB07FC4FEA1C4C0CFB0BF7A4
:102D4000D21B03FB0CF761EB07010CFB0EF7B0EB9A
:102D5000074072EB17420CFB08F734BFA2EB0742A7
:102D6000B2EB074261EB17414FEA8C5504EB9C2410
:102D70004FEA910706FB07FC4FEA1C4C0CFB0BF7D4
:102D8000B0EBC74072EB573203FB0CF734BFA2EB3A
:102D9000C742B2EBC74261EB57310CFB0EF7B0EB09
:102DA000C70072EB57720CFB08F734BFA2EBC702E7
:102DB000B2EBC70261EB57714FEA816141EA9211B0
:102DC0004FEA826242EA90124FEA806015EB4C258E
:102DD00044F100044FEAD13706FB07FC4FEA1C4CD4
:102DE0000CFB0BF7D21B03FB0CF761EB07010CFB91
:102DF0000EF7B0EB074072EB17420CFB08F734BF3D
:102E0000A2EB0742B2EB074261EB17414FEA813177
:102E100041EA92414FEA823242EA90424FEA8030E0
:102E20004FEA0C7615EB1C1544F1000448EA034305
:102E30004EEA0B484FF0000EB2EB080C71EB0307A3
:102E400024BF624639464EEB0E0E4FF0000B0018C1
:102E5000524149414BEB0B0BB2EB080C71EB0307F2
:102E60007BF1000B24BF624639464EEB0E0E4FF04D
:102E7000000B0018524149414BEB0B0BB2EB080C15
:102E800071EB03077BF1000B24BF624639464EEB22
:102E90000E0E51EA020718BF46F0010616EB0E7639
:102EA00055F1000254F1000103D5BDE88901BDE8E8
:102EB0000088BDE88901BDE80048B619524141EBE0
:102EC0000101A3F10103704780807F7E7D7C7B7AC6
:102ED0007978777676757473727171706F6E6E6DC6
:102EE0006C6C6B6A6A69686867666665646463636C
:102EF00062616160605F5F5E5E5D5D5C5C5B5B5AF2
:102F00005A5959585857575656555555545453535E
:102F100052525251515050504F4F4F4E4E4D4D4DB9
:102F20004C4C4C4B4B4B4A4A4A4949494848484704
:102F30004747474646464545454444444443434342
:102F400043424242424141419C46002B30D47700EB
:102F50002BD04FEA37071CB503B44FF010004FF0E9
:102F60001001BAF1000F06D0BCF1000FDCBF40F039
:102F7000080040F008014FF000000FBCBDE8104011
:102F80000BF1010BBBF1010F08BF5FEA170722BF6E
:102F900012F1010211F101014FF0004143F1000370
:102FA00000F0004043EA00007047F9D35708D0E72B
:102FB00046EA06464FEA164613F1400F1FDD13F1AD
:102FC000200FDFBF16430A46002120335B42BED0EC
:102FD000C3F1200746EA06464FEA164602FA07F70B
:102FE00046EA070622FA03F2C3F1200701FA07F7BF
:102FF00042EA070221FA03F14FF00003A7E746EA8D
:10300000020646EA06464FEA164646EA0106BCBFF5
:1030100046EA0646360C4FF000034FF000024FF030
:10302000000194E72DE9804C70B49A46934691E8EC
:10303000380007C831EA400C48BF34EA430C03D5D6
:10304000FFF7E6FDFFF780FFF0BCBDE8008C2DE93F
:10305000804C70B49A46934691E8380007C810F047
:10306000804F08BF13F0804F03D100F005F8FFF741
:103070006BFFF0BCBDE8008C20F07F4723F07F4C55
:1030800080EA030000F0004007EB0C03A3F57C533B
:10309000A3F1FE0392F0000F00F0B38095F0000F53
:1030A00000F077802DE901494FEA114021EA0048FC
:1030B0004FEA144624EA064700FB06FC08FB06F626
:1030C00007FB08F818EB06484CEB164C00FB07F71B
:1030D00018EB07484CEB17404FEA124B22EA0B4E15
:1030E0004FEA154625EA06470BFB06FC0EFB06F6E3
:1030F00007FB0EFE1EEB064E4CEB164C0BFB07F7C8
:103100001EEB074E4CEB174B18EB0B0840F1000081
:1031100018EB0E0B58EB000840F100008F1A4FF02F
:1031200000014FF000063CBFC943661B14BFB5EB5E
:10313000040C00213CBFC943F61B4FEA174427EAA1
:1031400004454FEA1C472CEA074C04FB076205FBC9
:1031500007F70CFB05F616EB074642EB174204FB9C
:103160000CFC16EB0C4642EB1C421BEB060658EB24
:10317000020241414EEA8E0E46EA9E0601D5BDE8A6
:103180000189B619524141EB0101A3F10103BDE8E8
:1031900001894FEA144524EA05464FEA114721EA1E
:1031A000074C05FB07F406FB07F70CFB06F111EBD8
:1031B000074144EB174405FB0CFC11EB0C4144EBBD
:1031C0001C444FEA124722EA074C05FB07F206FBB4
:1031D00007F70CFB06F616EB074642EB174205FB1A
:1031E0000CFC16EB0C4642EB1C456A1854F100012E
:1031F00048BF7047B619524141EB0101A3F10103E9
:10320000704795F0000F37D04FEA114221EA02468D
:103210004FEA144724EA074C02FB07F106FB07F7C5
:103220000CFB06F414EB074441EB174102FB0CFCCA
:1032300014EB0C4441EB1C414FEA154725EA074CBF
:1032400002FB07F506FB07F70CFB06F616EB074635
:1032500045EB174502FB0CFC16EB0C4645EB1C42FC
:10326000121951F1000148BF7047B619524141EBA4
:103270000101A3F1010370474FEA144524EA054612
:103280004FEA114721EA074C05FB07F106FB07F758
:103290000CFB06F212EB074241EB174105FB0CFC5D
:1032A00012EB0C4251EB1C414FF0000648BF704737
:1032B000921841EB0101A3F101037047490050EA64
:1032C000C12018BF04204A0D18BF40F0010040F291
:1032D000FF72B2EB515F08BF40F00200012808BF47
:1032E0000520704730380A2801D20120704700209D
:1032F0007047000010B500290AD00878002807D0D0
:1033000005487844FEF71CF8002801D0002010BDC5
:103310000248784410BD00007E01000076010000E4
:1033200010B500290AD00878002807D0054878444D
:10333000FEF706F8002801D0002010BD02487844AE
:1033400010BD00006E01000066010000FDF702BC28
:10335000FDF736BD000000000000000030313233C0
:1033600034353637383941424344454640305800B9
:1033700030313233343536373839616263646566EB
:103380004030780004000008000000000000000247
:1033900000010000103031323334353637383961AE
:1033A00062636465667870003031323334353637A5
:1033B000383941424344454658500000024000001D
:1033C000000000A00000000005400000000000C850
:1033D000000000000C4000000000409C00000000C5
:1033E000194000000020BCBE000000003440000076
:1033F000BFC91B8E00000004B5400000504BCFD069
:103400006607E2CF010000006C4100003E8251AA35
:10341000DFEEA73401000000D9420000DCB5A0E2D5
:103420003A301F97FFFFFFFFB4450000FD25A0C8FD
:10343000E9A3C14FFFFFFFFFFF3F00000000008036
:1034400000000000FF3F00000000008000000000BE
:10345000616464723A25642020646174613A256471
:103460000D0A0025642025632025780D0A00000040
:10347000AC35000800000020C81700006C010008EF
:103480001C00000043000000F8FFFFFF0C000000DC
:103490000E0000000F0000002E00000010010000D0
:1034A00043000000F8FFFFFF004040404040404024
:1034B0004040414141414140404040404040404007
:1034C00040404040404040404005020202020202AB
:1034D00002020202020202020220202020202020FA
:1034E000202020020202020202029090909090900E
:1034F00010101010101010101010101010101010CC
:10350000101010100202020202028888888888883F
:10351000080808080808080808080808080808082B
:103520000808080802020202400000000000000033
:10353000000000000000000000000000000000008B
:10354000000000000000000000000000000000007B
:10355000000000000000000000000000000000006B
:10356000000000000000000000000000000000005B
:10357000000000000000000000000000000000004B
:10358000000000000000000000000000000000003B
:10359000000000000000000000000000000000002B
:0C35A0000000000000000000000000001F
:0400000508000105E9
:00000001FF
