:020000040800F2
:10000000301C002055020008FF2F0008A12C00081A
:10001000FB2F0008812B00081533000800000000AA
:100020000000000000000000000000000731000890
:10003000F12B0008000000002D3000080B310008F3
:100040006F0200086F0200086F0200086F020008CC
:100050006F0200086F0200086F0200086F020008BC
:100060006F0200086F0200086F0200086F020008AC
:100070006F0200086F0200086F0200086F0200089C
:100080006F0200086F0200086F0200086F0200088C
:100090006F0200086F0200086F0200086F0200087C
:1000A0006F0200086F0200086F0200086F0200086C
:1000B0006F0200086F0200086F0200086F0200085C
:1000C0006F0200086F0200086F0200086F0200084C
:1000D0006F020008493200086F0200086F02000832
:1000E0006F0200086F0200086F02000800000000A5
:1000F0000000000000000000000000000000000000
:100100006F02000800F002F800F090F80AA090E8F2
:10011000000C82448344AAF10107DA4501D100F0C2
:1001200085F8AFF2090EBAE80F0013F0010F18BFFF
:10013000FB1A43F001031847E84500000846000099
:10014000103A24BF78C878C1FAD8520724BF30C803
:1001500030C144BF04680C607047000000230024D5
:1001600000250026103A28BF78C1FBD8520728BFC7
:1001700030C148BF0B6070476E2900F08D82702936
:1001800000F0CF83662904F02182652904F01E82E5
:10019000672904F01B82612904F01A8203681B0A94
:1001A00028BF41F08001692900F03A82642900F0FB
:1001B0003782752900F034826F2900F05C8378293A
:1001C00000F09B83E92900F0F782E42900F0F48233
:1001D000F52900F0F182EF2900F05983F82900F0A9
:1001E0009A830368DB0928BF41F08001632901F08D
:1001F0001B81732901F02081E32901F02B81F32970
:1002000001F03081002070471FB501F037FB04007A
:100210000020002104F0C4F9401C6060002000218F
:1002200004F0A8F9E0601FBD10B510BD01F0F8FAA8
:100230001146FFF7E9FF03F04FFD01F0D5FB03B4D2
:10024000FFF7F2FF03BC01F01DFC000080F30888FB
:10025000704700000948804709480047FEE7FEE76D
:10026000FEE7FEE7FEE7FEE7FEE7FEE7FEE7FEE766
:1002700004480549054A064B704700000D31000847
:100280000501000830160020301C00203018002026
:10029000301800201CB50C46064B7B446946009084
:1002A000204600F012FA04460020694600F020FAC9
:1002B00020461CBD530400000FB400B58DB010A93A
:1002C000099000910B904FF0FF300A9000200C90A5
:1002D000064878440690064878446A4607900F9985
:1002E00009A800F001FC0DB05DF814FB3308000014
:1002F0004B0800002DE9FF5F1D464FF0FF3B914684
:100300004FF000085F46D5E90146A96901987F1CB6
:100310008847296A824688470028F6D1BAF1FF3F0C
:100320000CD0002E24F4C06419DD600614D5BAF197
:100330002B0F09D0BAF12D0F0ED103E0584604B0AF
:10034000BDE8F09F44F48064A96901987F1C884748
:10035000761E8246002E02DDBAF1300F03D0B9F1CD
:10036000000F26D032E0A969761E01987F1C44F464
:1003700000748847002E824605DDBAF1780F06D05A
:10038000BAF1580F03D0B9F1000F10D01EE0B9F147
:10039000000F02D0B9F1100F18D1A969761E01988B
:1003A0007F1C24F4007488478246102002E0082055
:1003B00000E00A20814609E0A96908FB0908761EC9
:1003C00001987F1C44F4007488478246002E05DDA6
:1003D0004946504600F074FB0028EDDAE9690198BF
:1003E0008847A00502D46FF00100A8E7E00725D1F7
:1003F000600613D5600502D5C8F1000000E0404654
:1004000029680A1D2A600968220501D5087015E0CF
:10041000220701D5088011E008600FE02868011D5F
:1004200029600068210502D580F8008006E02107D8
:1004300002D5A0F8008001E0C0F8008038467EE7D1
:1004400010B5431C02E010F8011B71B18107FAD10D
:100450004FF0013202C88C1A8C4314EAC211F9D051
:10046000C01A0A0603D0C01E10BDC01A10BD0A046F
:1004700001D0801E10BD0902FCD0401E10BD032A11
:1004800040F2308010F0030C00F0158011F8013BB1
:10049000BCF1020F624498BF11F801CB00F8013B98
:1004A00038BF11F8013BA2F1040298BF00F801CB5C
:1004B00038BF00F8013B11F0030300F04583083A10
:1004C000C0F0088051F8043B083A51F804CBA0E88A
:1004D0000810F5E7121D5CBF51F8043B40F8043BDF
:1004E000AFF30080D20724BF11F8013B11F801CB14
:1004F00048BF11F8012B24BF00F8013B00F801CBE5
:1005000048BF00F8012B70474FF0000200B51346BA
:1005100094469646203922BFA0E80C50A0E80C5023
:10052000B1F12001BFF4F7AF090728BFA0E80C50D4
:1005300048BF0CC05DF804EB890028BF40F8042BCD
:1005400008BF704748BF20F8022B11F0804F18BF3A
:1005500000F8012B704770477047704770B504462C
:1005600085690068C10601D5302600E02026C00755
:1005700007D070BDD4E9012130469047206A401C65
:1005800020626D1EF6D570BD70B504468569007891
:10059000C00707D170BDD4E9012120209047206A0F
:1005A000401C20626D1EF6D570BD09684A0501D554
:1005B00040B27047C905FCD500B2704709684A05CA
:1005C00001D5C0B27047C905FCD580B2704770B57F
:1005D0000C460546012A05D02878800600D5EA6930
:1005E000002302E0012305E05B1C934202D2E05CA1
:1005F0000028F9D1A869E618C01AA861286A184429
:1006000028622846FFF7AAFF04E0D5E9012114F883
:10061000010B9047B442F8D32846FFF7B5FF70BDF1
:100620002DE9F0410646002410687529314616A5CB
:1006300010D0FFF7BAFF002802DA404213A507E006
:1006400031688A0701D512A502E0490704D511A532
:10065000012401E0FFF7B2FF00210A2206F124077E
:1006600009E0B0FBF2FCB0FBF2F302FB1C003030FF
:1006700078541846491C0028F3D123462A463046B0
:10068000BDE8F04100F0E0BA000000002D000000DD
:100690002B0000002000000011680268006A53056A
:1006A00001D508700AE0D30501D5088006E01306DD
:1006B00003D5C217C1E9000200E0086001207047BD
:1006C00001694A1C02610878704700B58FB0CDE916
:1006D00001310021059105497944CDE90310114606
:1006E000684600F029F90FB000BD0000E5FFFFFFEC
:1006F0000A6802F8010B0A60704700002DE9FF5FED
:1007000015468A460446DFF8AC80F8440027D8E94D
:1007100000103E46CDE9001010E03AF816106A4687
:1007200002A801F05DF8411C07D02178890603D5A5
:10073000E269391891420DD80744761C207880066A
:1007400002D5E069B84205DDAE42E6DB3AF81600B4
:100750000028E2D1A069C01BA0612046FFF7FEFE81
:10076000D8E90010CDE90010002017E03AF8181081
:100770006A4602A801F034F8B0F1FF3F81460BD081
:1007800000250DF1080B05E0D4E901211BF8050057
:1007900090476D1C4D45F7D308F10100B0428046EB
:1007A000E4DB206A384420622046FFF7EDFEBDE816
:1007B000FF9F0000C63E00002DE9F0418046D21D9B
:1007C00022F007020025D2E90002F52915A614D06F
:1007D000011E72F1000106DA0023D0EB030063EB87
:1007E000020211A608E0D8F800108B0701D50FA669
:1007F00002E0490701D50EA601251146002408F1A3
:10080000240704E000F0D2F930323A55641C50EA73
:100810000102F7D12B46324621464046BDE8F04161
:1008200000F012BA000000002D0000002B000000B4
:100830002000000030B4002100F1240408E002F0A0
:100840000705D208303542EA4372DB086554491C7B
:1008500052EA0305F3D10468002310A2250707D547
:10086000A40600D421B1C46901230DA2641EC46191
:1008700030BC00F0E9B910B5044621461068FFF716
:100880009DFE02462046BDE810400023D2E7D21D5F
:1008900022F00701D1E90023CCE7000000000000AE
:1008A00030000000F0B40D460188090502D5214C46
:1008B0007C4402E01F4C7C440E34002100F12406ED
:1008C00008E002F00F071209E75D42EA03721B0914
:1008D0007754491C52EA0307F3D102780023120728
:1008E00004D5702D06D009B1022311342246F0BC84
:1008F00000F0AAB901231034F8E770B504460D469C
:1009000021461068FFF75AFE024629462046BDE8F8
:1009100070400023C6E7D21D22F00703D3E900236D
:10092000C0E70368126843F0200303600823C36133
:100930000023B7E7283D00002DE9F05F8946044613
:100940004FF0000ADFF874B1FB44C0F820A0204645
:10095000E1688847002874D0252806D0D4E9012111
:100960009047206A401C2062F1E700265F4620463F
:10097000E16888472028054607DB312D05D2781924
:1009800010F8200C08B10643F1E7B00701D526F0B6
:100990000406C4F81CA00027C4F818A02A2D09D00A
:1009A000284602F0FBFD38B304EB8708303DC8F859
:1009B000185019E059F8041B204604EB8702916196
:1009C000E1688847012F054618D1E069002820DA40
:1009D00026F020061DE0D8F8180000EB800005EB9B
:1009E00040003038C8F818002046E16888470546BE
:1009F00002F0D4FD0028EED1012F0AD02E2D08D10F
:100A00002046E16888477F1C0546022F46F02006F5
:100A1000C4DBA069002803DA404246F00106A06169
:100A2000F00701D026F010066C2D0BD0682D09D0F0
:100A30004C2D39D06A2D35D0742D35D07A2D33D048
:100A400016E038E0E1682F4620468847B842054660
:100A500009D16C2F26D04FF48060E1680643204610
:100A60008847054604E06C2F1AD04FF48070064387
:100A70000DB3A5F14100192802D8203546F40066CF
:100A80004A462946204626604E46FFF775FB80B150
:100A900001280BD0F61D26F0070000F1080956E7E3
:100AA0004020E4E78020D8E70020D6E706F10409DB
:100AB0004DE7284652E7206ABDE8F09FB83C0000A9
:100AC0003A2800D2303820F02002412A01D3A2F186
:100AD0003700884201D34FF0FF307047026811445D
:100AE0001378016018467047D16005497944516117
:100AF00004497944116200211161114600F0B6BC2D
:100B0000EDFFFFFF41010000426842B1016811F8AA
:100B1000013B23B1521EC0E9001218467047012163
:100B2000C160881E704742685AB1C368016843B902
:100B300083688B4205D0491E521CC0E90012002078
:100B400070474FF0FF30704710B5203AC0F00B806F
:100B5000B1E81850203AA0E81850B1E81850A0E8C1
:100B60001850BFF4F5AF5FEA027C24BFB1E818501B
:100B7000A0E8185044BF18C918C0BDE810405FEA8B
:100B8000827C24BF51F8043B40F8043B08BF704707
:100B9000D20728BF31F8023B48BF11F8012B28BF0C
:100BA00020F8023B48BF00F8012B704730B5B0F188
:100BB0000A024FEA900E71F100034EEA817EB0EB1B
:100BC0000E0061EB91014FEA101E4EEA017E10EB20
:100BD0000E0041EB11114FEA102E4EEA016E10EBA0
:100BE0000E0041EB11214FEA104E4EEA014E10EB80
:100BF0000E0041EB1141401841F100014FEAD000D5
:100C000040EA41704FEAD10110EB80054FEA8104C0
:100C100044EA907444EB01046D1944EB0404521B44
:100C2000A3414FF0000348BF0A3200D530BD401C3D
:100C300041F1000130BD10B5044600F017FE006818
:100C4000005D00F0010010BD2DE9F0470D4699460A
:100C50009246044600F124080168880604D5E0693C
:100C600021F01001216000E00120A84201DD471BB6
:100C700000E00027A1697A1902EB0900081AA061B7
:100C80002078C00602D42046FFF768FC002608E062
:100C9000D4E901211AF806009047206A401C761C0E
:100CA00020624E45F4DB2078C0060AD52046FFF7C7
:100CB00055FC06E0D4E9012130209047206A401C11
:100CC0002062381EA7F10107F4DC07E0D4E9012116
:100CD00018F805009047206A401C2062281EA5F1E4
:100CE0000105F3DC2046FFF74FFC2078000602D513
:100CF0000220BDE8F0870120FBE770472DE9FF4F98
:100D00000C461E464FF0FF378BB0D2E90001DDF8EC
:100D100060800A908A46C1F30A5505B93D46002114
:100D200008464FF00000BAF1000F00F4400005DA69
:100D300000EB80004FF4400101EA50004FEA905967
:100D4000B9F1010F00DDB9460A9850EA4A000ED009
:100D500044F61050A5F2FF3545432F14B8F1000FAB
:100D60001ED07542291E1EDDC9F100021CE0B8F13B
:100D7000010F4FF0000001D0302103E0F24305E005
:100D80002154401CB042FBDB30460022002121549C
:100D90000B99C1F80880C1E900200FB0BDE8F08FC1
:100DA000BD1B6D1CDEE74A4600DA694206A800F06A
:100DB000A9FD06AB93E8070003AB83E807005046A4
:100DC0000A9900F066FE8DE80700A0F500501F3874
:100DD00000900398002D0ADD42F21F014A460844A4
:100DE000002303A90390684601F0CFF809E0A0F5BD
:100DF00000504A461F38002303A90390684601F0BB
:100E0000D9F88DE807000004000C03D04FF0FF3044
:100E1000410800E01046B8F1000F03D00022009214
:100E200015461EE0751E05D4FFF7C0FE3032625530
:100E30006D1EF9D5B3460122084302D000227F1C63
:100E400004E02078302801D100227F1E002A099773
:100E500084D01DE0112D07DAFFF7A8FE303262556D
:100E60006D1C50EA0102F5D1084302D00098C8B1C8
:100E70000EE00021681E05E0235C625C635422548E
:100E8000401E491C8142F7DBAB46A81B401E09905F
:100E9000002004F80B000B98099AC0F80880C0E9FC
:100EA000002B7AE711264FF0000857E72DE9F04FA5
:100EB00088460446D21D22F0070191B0D1E9000115
:100EC000CDE90A0102F056FB02460B98C00F01D093
:100ED0002D2007E02068810701D52B2002E020218A
:100EE00001EAC000032A099001D0072A05DB034666
:100EF0004146204600F0C6FC0BE12078800601D573
:100F0000E06900E00620B8F1650F814606D0B8F12F
:100F1000660F18D0B8F1670F70D131E00020B9F139
:100F2000110F009001DB112301E009F101030AAA6E
:100F300001A90CA8FFF7E2FEDDE90C70002609F11B
:100F40000105834647E001204B4600904FF00047E3
:100F50000AAA01A90CA8FFF7D1FEDDE90DB00C9992
:100F60005D46002610B909F101000D18B9EB050026
:100F700003D4C0F1FF3609F10105A5EB09002BE010
:100F8000B9F1010F01DA4FF001090020B9F1110F99
:100F90000090484601DD112300E003460AAA01A99A
:100FA0000CA8FFF7ABFEDDE90C704D46002683462A
:100FB000207800070AD4AB4500DA5D4601A8012D70
:100FC00004DD411911F8011C302907D04F4502DA20
:100FD00017F1040F04DA012082460FE06D1EEEE7E0
:100FE000002F02DCED1B3E4403E0781CA84200DD2C
:100FF0007D1CB81B00F1010A4FF000472078000764
:1010000003D4AA4501DB4FF0FF3A0021B7F1004FAE
:101010000DF143088DF8431024D002202B23002F1C
:1010200001DA7F422D230A21021EA0F1010000DC1B
:101030005FB197FBF1FC97FBF1F201FB1C7C1746BB
:101040000CF1300C08F801CDEEE7A8F101000370B7
:101050002188090501D5452100E06521A0F101089D
:1010600000F8011C09980FA9A1EB0807FF1D00B1AA
:101070000120411901EBEA70A1693844081A401EA9
:10108000A0612078C00602D42046FFF767FA0998CD
:1010900028B1D4E901219047206A401C20622078C1
:1010A000C00622D52046FFF759FA1EE0002E04DBC9
:1010B000B34502DD01A8805D00E03020D4E90121C4
:1010C0009047206A401C2062761CAAF101005FEA6A
:1010D000000A0AD100F0D2FBC0680168405CD4E984
:1010E00001219047206A401C2062281EA5F10105BD
:1010F000DCDC07E0D4E9012118F8010B9047206AF5
:10110000401C2062381EA7F10107F3DC2046FFF7E0
:101110003BFA032011B041E62DE9F04F04460D469D
:10112000D21D22F0070089B0D0E900974846394621
:1011300002F020FA0246F80F01D02D2307E02068C4
:10114000810701D52B2302E0202101EAC0038DF89D
:1011500020300BB1012000E00020032A824601D09C
:10116000072A04DB2946204600F08CFB3FE120786B
:10117000800601D40D2500E0E569C7F30A560D2D60
:1011800049DA00214FEA175B08464FF00000002FB4
:1011900000F4400007DA00EB80004FF4400100EB60
:1011A000D07001EA60008115012901DD4FF0FF31A7
:1011B00000224FEA850CBCF1180F06D31346ACF1A0
:1011C00018004FF08052C24003E04FF4801323FA1E
:1011D0000CF30CF10C0CBCF1200F04D3ACF1200C7F
:1011E00009FA0CF001E007FA0CF000294FF0004872
:1011F00001DD18B90FE00ED140450CD319EB0209FF
:101200005F4121B9404502D19F4329EA0209BBEB66
:10121000175F00D0761C2088000502D57B487844F3
:1012200002E07A487844193808AA302302F80A30D4
:10123000037C0AF10101002E0AF1020A53546A46A6
:1012400002DC4FF0300101E04FF031014FF00108B6
:101250008DF8001002D0A6F2FF3603E059EA4701EC
:1012600000D06B4E002D02DC2178090704D54FF029
:1012700002082E218DF80110C44600210BE0C7F3AF
:1012800003433F01C35C491C6D1E02F80830052969
:1012900008F1010801DA002DF1DC00210CE000EB7F
:1012A0001973491C1B786D1E082902F808304FEA93
:1012B000091908F1010801DA002DF0DC21688B061C
:1012C00002D516E0A8F10108E04505DD02EB0803B0
:1012D00013F8013C302BF5D0B8F1000F09DD02EB1B
:1012E000080313F8013C2E2B03D1090701D4A8F100
:1012F0000108002D05DD3E2102F808106D1E08F1E1
:101300000108407C002E02F8080008F1010804DA08
:101310002D20764202F8080002E02B2002F8080097
:101320000A214FF47A70864208F101080BDB96FB24
:10133000F0F3303302F8083096FBF0F308F10108BF
:1013400000FB136601E0642E0CDB642096FBF0F3D7
:10135000303302F8083096FBF0F308F1010800FB87
:10136000136601E00A2E06DB96FBF1F0303002F83E
:10137000080008F1010896FBF1F001FB1060303025
:1013800002F80800A16908F1010808EB050202EB68
:101390000A00081AA0612078C00602D42046FFF790
:1013A000DDF8216A08AE01EB0A00206204E0D4E90E
:1013B000012116F8010B9047BAF1010AF7D2207803
:1013C000C00602D52046FFF7C9F86E4609E016F8B8
:1013D000010B3E280FD0D4E901219047206A401C20
:1013E0002062B8F10108F2D22046FFF7CDF809B02B
:1013F0000320BDE8F08F206A2844206203E0D4E98E
:101400000121302090476D1EEBD3F8E70634000031
:1014100002FCFFFF10B5436913B1AFF3008001E098
:10142000FFF7D5F8012010BD127800F124010A70F1
:1014300000224A700122EDE711684FF0FF32E9E720
:1014400010B5436913B1AFF3008001E0FFF756F91F
:10145000012010BD128800F1240182840022C28480
:101460000122EDE711684FF0FF32E9E72DE9F34F74
:101470004FF0000A0C4656468DB001200C9001F149
:101480000C000B9062690B9801219047051E2DD02E
:10149000252D2CD0216A8847C0B162690B980121A3
:1014A0009047216A88470028F7D16269411E0B984E
:1014B000904700E0761CA1690D988847216A88470B
:1014C0000028F7D1E1690D988847DBE7A1690D98FD
:1014D0008847A842074601D1761CD3E7E1690D98F9
:1014E00088477F1C02D1BAF1000F6FD06CE16269AE
:1014F0000B9800273D46394690472A2804D1626957
:101500000B98012190470125DFF8D08262690B9882
:1015100001219047A0F130010A290AD24745E5DCB4
:1015200007EB870100EB4107303FDFD445F01005A2
:10153000ECE7E90601D46FF000476C280AD04C288C
:1015400014D0682815D06A280DD074281CD07A28A9
:101550001AD01DE062690B98012190476C2802D0D7
:1015600045F0040514E045F002050DE045F02005C6
:101570000AE062690B9801219047682802D045F083
:10158000080505E045F4006562690B980121904764
:10159000C4E9015765283DD019DC58287AD00CDC05
:1015A000452837D004DC252826D041289ED131E0BB
:1015B00046282FD0472899D12CE05B2877D0612886
:1015C00028D063287CD0642823D15AE0F7E06F2824
:1015D00048D008DC66281DD067281BD0692821D098
:1015E0006E2816D127E0702845D0732868D075285A
:1015F00047D078280DD14DE0A1690D98884725285E
:1016000005463FF469AFE1690D9888476D1C3FF4CA
:101610006AAFD9E00D9923466A466FF00100AFF337
:101620000080C6E045F0400023464FF000026060B5
:10163000A80736D43EE0E8077FF447AF2068011DD5
:1016400021600068290501D506701BE7290701D52F
:10165000068017E7A90703D5F117C0E9006111E774
:1016600006600FE745F0400023464FF00802606037
:10167000A80716D41EE040F60E0125EA01006060BE
:1016800016E045F0400023464FF00A026060A807CC
:1016900007D40FE045F040006060A80708D5234656
:1016A00010220D996FF00100AFF3008081E007E098
:1016B000102223460D996FF00100FEF71BFE78E023
:1016C0004FF0000963284F46C8464B46CB4602D030
:1016D0005B2807D039E02079C00601D40120A06042
:1016E000012732E06269D4F80CB00B9801219047D1
:1016F0005E2807D14FF0010949466269D4F80CB061
:101700000B989047216939B900210A4603AB43F889
:101710002120491C0829FADBD8B3216949B308F113
:10172000010862690B98012190475D28F4D1B9F155
:10173000000F09D0002003A951F82020D24341F81E
:101740002020401C0828F7DB03AB20690028207903
:101750004FEA40701ED05B462246CDF80080CDE9AE
:1017600001970D9900286FF0010020DAAFF3008097
:101770001FE0C11703AA00EBD1614B1121F01F013B
:1017800002EB8302411A136801208840034313606F
:10179000C7E719E00D99224600286FF00100009775
:1017A00002DAAFF3008004E0AFF3008001E0AFF3B2
:1017B000008000280ADA401C06D10C9820B14FF0B6
:1017C000FF300FB0BDE8F08F5046FAE7E90701D1CE
:1017D0000AF1010A064400200C9053E6CCCCCC0C54
:1017E00070B516460C46054600F040F8036893F8BD
:1017F0000101012806D0FF2C0FD8185D68B1012027
:101800002C7070BDD3F807013246214603F207134E
:1018100003442846BDE8704018474FF0FF3070BDC4
:10182000754600F0EBF8AE4605006946534620F0D9
:101830000700854618B020B5FEF71AFDBDE8204028
:101840004FF000064FF000074FF000084FF0000B7C
:1018500021F00701AC46ACE8C009ACE8C009ACE82F
:10186000C009ACE8C0098D467047000010B500F013
:1018700005F8001D10BD00BF292D0000004870476D
:10188000EC1500202DE9F0411F46044603260168AF
:10189000072A01F4006004DB08B116A505E016A5CF
:1018A00003E008B115A500E015A521F010002060A7
:1018B000A069C01EA0610FB1401EA0612046FEF7C6
:1018C0004DFE4FB1D4E9012138469047206A401CB3
:1018D0002062C01C206206E0206AFAE7D4E90121F8
:1018E00015F8010B9047761EF8D22046FEF74CFE05
:1018F000BDE8F0814E414E006E616E00494E4600DB
:10190000696E66002DE9F047814616468AB0354873
:1019100078440DC88DE80D0032487844801C03AC33
:101920000DC884E80D0041F69B300844372190FB38
:10193000F1F290FBF1F5A5F1800501FB12041B3CCF
:1019400002D56442012000E00020DFF898A0804624
:101950000027FA44AAF1BE0A0EE0E0070AD0324698
:10196000684607EB470101230AEB810100F022FBE7
:101970008DE8070064107F1C002CEED1194F7F44C6
:10198000AE3F19E0E80715D007EB04100DF1180A77
:1019900090E80E008AE80E00C068F04201D1981964
:1019A00008903246012306A903A800F003FB03AB0D
:1019B00083E807006D10641C002DE3D14FF0010394
:1019C00032466946B8F1000F03A802D000F0DDFAF4
:1019D00001E000F0EFFAC9E90001C9F808200AB0F7
:1019E000BDE8F087A42D000010B50446AFF30080D9
:1019F0002046BDE81040FEF722BC000000487047BA
:101A0000CC1500204FF0013C50F8042B51F8043B5A
:101A10009A4221D1A2EB0C03934313EACC1317D1C2
:101A200050F8042B51F8043B9A4215D1A2EB0C0359
:101A3000934313EACC130BD150F8042B51F8043B19
:101A40009A4209D1A2EB0C03934313EACC13DBD0E7
:101A50004FF00000704700BFD01A01BAB1FA81F10F
:101A600001F0180122FA01F0CB40C1F12001DBB2F4
:101A7000C0B2C01A2CFA01F3D11A914311EAC31172
:101A8000E6D1704701491820ABBEFEE726000200F0
:101A900070475FEA400C08BF91F0000F4FEA8C23BB
:101AA0004FEAC12243EA51514FEA1C5018BF00F5DA
:101AB000F0404FEA300018BF41F000415FEA6C5C33
:101AC00000F02980BCF1FF3F08BF40F08040704724
:101AD000130C06BF12044FF0100C4FF0000C130E45
:101AE00004BF12020CF1080C130F04BF12010CF119
:101AF000040C930F04BF92000CF1020CD30F04BF2F
:101B000052000CF1010C11464FF00002A0F11F0031
:101B1000A0EB0C00704711F0004F08BF704731F088
:101B200000413FF4D5AF0B0C06BF09044FF0100C79
:101B30004FF0000C0B0E04BF09020CF1080C0B0F48
:101B400004BF09010CF1040C8B0F04BF89000CF1D8
:101B5000020CCB0F04BF49000CF1010CCCF12003A7
:101B6000A0EB0C0022FA03F302FA0CF241EA0301A3
:101B700000F10100704720F07F4C80EA030023F061
:101B80007F47ACEB070303F57C5300F0004003F103
:101B9000FF032DE980494FEA154B09B44FEA14437E
:101BA00025EA0B4E24EA03480FF2042606EB13271E
:101BB00049083E785FEA320203FB0667C7F5000773
:101BC00007FB06F64FEA54374FEAD64606F10206FF
:101BD00007FB066CCCF1005C4FEA1C472CEA074C73
:101BE00007FB06F40CFB06F504EB15464FEA9616C8
:101BF00034BF00204FF000404FEAD13706FB07FC0E
:101C00004FEA1C4C0CFB0BF7D21B03FB0CF761EBF0
:101C100007010CFB0EF7B0EB074072EB17420CFB11
:101C200008F734BFA2EB0742B2EB074261EB174162
:101C30004FEA0C444FEA910706FB07FC4FEA1C4CA5
:101C40000CFB0BF7B0EBC74072EB573203FB0CF702
:101C500034BFA2EBC742B2EBC74261EB57310CFB7A
:101C60000EF7B0EBC70072EB57720CFB08F734BFEE
:101C7000A2EBC702B2EBC70261EB5771039F4FEAB9
:101C8000816141EA921104EBCC044FEAD1374FEA6B
:101C9000826206FB07FC42EA90124FEA80604FEA3C
:101CA0001C4C0CFB0BF7D21B03FB0CF761EB070181
:101CB0000CFB0EF7B0EB074072EB17420CFB08F77A
:101CC00034BFA2EB0742B2EB074261EB17414FEA88
:101CD0008C554FEA910704EB9C2406FB07FC4FEA66
:101CE0001C4C0CFB0BF7B0EBC74072EB573203FBFD
:101CF0000CF734BFA2EBC742B2EBC74261EB5731DE
:101D00000CFB0EF7B0EBC70072EB57720CFB08F739
:101D100034BFA2EBC702B2EBC70261EB577115EB00
:101D20004C254FEA816141EA92114FEA82624FEA03
:101D3000D13742EA901206FB07FC44F100044FEA57
:101D400080604FEA1C4C0CFB0BF7D21B03FB0CF71B
:101D500061EB07010CFB0EF7B0EB074072EB17428B
:101D60000CFB08F734BFA2EB0742B2EB074261EB72
:101D7000174115EB1C154FEA813141EA92414FEAB8
:101D8000823242EA90424FEA80304FEA0C7644F1C8
:101D9000000448EA03434EEA0B484FF0000EB2EB52
:101DA000080C71EB030724BF624639464EEB0E0E5A
:101DB0004FF0000B0018524149414BEB0B0BB2EBBB
:101DC000080C71EB03077BF1000B24BF6246394618
:101DD0004EEB0E0E4FF0000B0018524149414BEBF9
:101DE0000B0BB2EB080C71EB03077BF1000B24BF6C
:101DF000624639464EEB0E0E51EA020718BF46F016
:101E0000010616EB0E7655F1000254F1000103D5E0
:101E1000BDE88901BDE80088BDE88901BDE800484A
:101E2000B619524141EB0101A3F1010370478080D3
:101E30007F7E7D7C7B7A7978777676757473727124
:101E400071706F6E6E6D6C6C6B6A6A6968686766DC
:101E500066656464636362616160605F5F5E5E5D6E
:101E60005D5C5C5B5B5A5A595958585757565655E2
:101E700055555454535352525251515050504F4F44
:101E80004F4E4E4D4D4D4C4C4C4B4B4B4A4A4A4994
:101E900049494848484747474746464645454544D7
:101EA0004444444343434342424242414141002B64
:101EB0009C4630D477002BD01CB54FEA370703B4CB
:101EC0004FF010004FF01001BAF1000F06D0BCF136
:101ED000000FDCBF40F0080040F008014FF00000A8
:101EE0000FBCBDE810400BF1010BBBF1010F08BFA7
:101EF0005FEA170722BF12F1010211F101014FF051
:101F0000004143F1000300F0004043EA0000704745
:101F1000F9D35708D0E746EA064613F1400F4FEAD7
:101F200016461FDD13F1200FDFBF16430A460021BE
:101F300020335B42BED0C3F1200746EA064602FAD0
:101F400007F74FEA164646EA0706C3F1200722FACA
:101F500003F201FA07F721FA03F14FF0000342EA16
:101F60000702A7E746EA020646EA06464FEA164691
:101F700046EA0106BCBF46EA0646360C4FF00003AF
:101F80004FF000024FF0000194E72DE9804C9A4693
:101F9000934670B491E8380007C831EA400C48BF56
:101FA00034EA430C03D5FFF7E6FDFFF780FFF0BCF2
:101FB000BDE8008C2DE9804C9A46934670B491E8B8
:101FC000380007C810F0804F08BF13F0804F03D1CE
:101FD00000F005F8FFF76BFFF0BCBDE8008C20F0C7
:101FE0007F4780EA030023F07F4C07EB0C03A3F547
:101FF0007C5300F00040A3F1FE0392F0000F00F0CC
:10200000B38095F0000F00F077802DE901494FEA89
:1020100011404FEA144621EA004800FB06FC24EA7E
:10202000064708FB06F607FB08F800FB07F718EB66
:1020300006484CEB164C4FEA124B18EB07484FEA98
:1020400015464CEB174022EA0B4E0BFB06FC25EA2B
:1020500006470EFB06F607FB0EFE0BFB07F71EEB13
:10206000064E4CEB164C4FF000061EEB074E4CEBA9
:10207000174B18EB0B0840F1000018EB0E0B58EB58
:10208000000840F100008F1A4FF000013CBFC94327
:10209000661B14BFB5EB040C00213CBFC943F61B03
:1020A0004FEA17444EEA8E0E27EA04454FEA1C47D2
:1020B00004FB07622CEA074C05FB07F70CFB05F64F
:1020C00004FB0CFC16EB074642EB174216EB0C46E2
:1020D00042EB1C421BEB060658EB0202414146EA6A
:1020E0009E0601D5BDE80189B619524141EB0101B7
:1020F000A3F10103BDE801894FEA14454FEA1147F6
:1021000024EA054621EA074C05FB07F406FB07F71E
:102110000CFB06F105FB0CFC11EB074144EB1744EB
:102120004FEA124711EB0C4144EB1C4422EA074CE6
:1021300005FB07F206FB07F70CFB06F605FB0CFC9C
:1021400016EB074642EB174216EB0C4642EB1C45DA
:102150006A1854F1000148BF7047B619524141EB6B
:102160000101A3F10103704795F0000F37D04FEA4A
:1021700011424FEA144721EA024624EA074C02FBC7
:1021800007F106FB07F70CFB06F402FB0CFC14EB53
:10219000074441EB17414FEA154714EB0C4441EB60
:1021A0001C4125EA074C02FB07F506FB07F70CFB71
:1021B00006F602FB0CFC16EB074645EB174516EB43
:1021C0000C4645EB1C42121951F1000148BF704703
:1021D000B619524141EB0101A3F1010370474FEAE7
:1021E00014454FEA114724EA054621EA074C05FB4E
:1021F00007F106FB07F70CFB06F24FF0000605FBA4
:102200000CFC12EB074241EB174112EB0C4251EB75
:102210001C4148BF7047921841EB0101A3F1010333
:102220007047000010B5142000F062F8C0B90F48E4
:1022300000680F4988420DD10EA002F063F81148E2
:10224000006840F001000F49086000200E49C1F805
:10225000000405E00DA002F055F8104800F01CFE47
:102260000FA002F04FF800F013FC10BD0C0100208D
:1022700022B1AB0A4F5441207570646174650D0A38
:1022800000000000040000205C010020676F207443
:102290006F204120626C6F636B0D0A0000500008D4
:1022A0002121796F752061726520676F20696E202A
:1022B000626F6F746C6F64657220636F6D6D616EB9
:1022C000642077696E646F770D0A000010B50548C9
:1022D00002F098F8044801F03FFC044801F03CFC8F
:1022E00010BD00000038014000080140000C014012
:1022F00010B50446642004FB00F10AA002F002F8C5
:1023000008E0642000F07BFC14480078772801D1B5
:10231000012010BD201EA4F10101CCB2F1D100BFFB
:10232000F7E7000025646D732C20706C65617365A0
:1023300020656E746572203A772C20666F72206279
:102340006F6F746C6F64657220636F6D6D616E6426
:102350002077696E646F770D0A0000006C0500201D
:10236000F0B587B004460D46E5480068002875D1F1
:10237000012D09D12078312806D1E2A001F0C2FF59
:102380002C21142000F065FC012D1AD12078322870
:1023900017D1E44801F0B6FF2C21142000F059FCBD
:1023A000D748006840F00200D54908600846006838
:1023B00040F0040008600020DB49C1F80404C1F8C3
:1023C0000804012D0BD12078332808D1D7A001F0C3
:1023D00099FFCB48006840F00800C9490860012D0A
:1023E0000DD1207834280AD1DAA001F08BFF00F05B
:1023F000B7FDE249E2A001F085FF00F049FB012DA5
:102400000ED1207835280BD1BD48006840F010006F
:10241000BB490860DFA001F075FFEBA001F072FF7F
:10242000012D0ED1207836280BD1B548006840F038
:102430004000B3490860EFA001F064FFE2A001F0A2
:1024400061FF012D78D120783728FBD1F5A001F06C
:1024500059FFC82000F0D3FB00F0D4FDA848007855
:1024600000F00400002868D0852D6AD1207801286A
:1024700067D1A348006820F00200A14908608021CC
:10248000E01C01F055F8A849C1F80C0494F8841038
:1024900094F8830001EB0020A349D1F80C14884282
:1024A0004CD1A14991F8081401F007019E4A02EBB2
:1024B000C1108022E11CFDF7E2FF9B4890F8080460
:1024C000401C00F0070060BB8D48007800F0200041
:1024D000C8B1002614E0944A92F800241302924AEC
:1024E000D2F80824521C0127C7EBD20203EB820268
:1024F000324491B28C4A02EB062000F0AFFF761C0A
:10250000042EE8DB0DE08849D1F80814491C0122AB
:10251000C2EBD101CA4A02EB81205214824900F079
:10252000AEFB8148D0F80804401C7F49C1F808047C
:10253000C4A001F0E7FE04E05EE063E0C2A001F0A9
:10254000E1FE012D58D120780428FBD1BDA001F077
:10255000D9FE754890F8080400F0070050B36848A9
:10256000007800F02000B0B1002611E06E4A92F829
:10257000002413026C4AD2F80824D20803EB82022A
:10258000324491B2684A02EB062000F067FF761CE5
:10259000042EEBDB0EE0644991F8081449078A0D1C
:1025A0006149D1F80814C908A54B03EB81205E49A5
:1025B00000F065FB5248007800F02000E8B1504878
:1025C000006820F004004E4908600846006820F0CA
:1025D000200008605448D0F80804C1015248D0F8DF
:1025E000002466482C3840F8221000F0C7FC642014
:1025F00000F005FB00F04CFAB2E1642000F0FFFAB5
:1026000000F000FD3E48007800F00800002834D0BB
:1026100029468EA001F076FE1A2D2AD106A806A919
:1026200006AA06ABCDE903210590CDE9010300918F
:102630008AA12046FDF740FE082816D120214F48E8
:10264000FDF762FF1B2221464C48FDF718FF00F002
:1026500095FC89A001F056FE2948006820F008008A
:102660002749086000F014FA7AE188A001F04AFED8
:1026700076E190A001F046FE72E12148007800F07A
:102680001000002839D0012D38D12078312836DBD0
:102690002078392833DC207830382349C1F8000409
:1026A0001748006840F002001549086008460068B5
:1026B00040F0040008600846006840F02000086010
:1026C00000201949C1F80404C1F808040021164883
:1026D000D0F8002429482C3840F82210124991F8EB
:1026E000000400F07DFE0648006820F01000044958
:1026F00008600D48D0F80014EEE0FCE0F7E0F2E0EE
:1027000004000020796F752063686F6F7365205B2C
:10271000315D6572617365204120626C6F636B0D82
:102720000A000000D04600085C010020796F752087
:1027300063686F6F7365205B335D73657420412040
:10274000626C6F636B2076657273696F6E20210D0A
:102750000A000000796F752063686F6F7365205BF6
:10276000345D676574204120626C6F636B20766511
:102770007273696F6E20210D0A0000003C01002079
:10278000746865206E65776573743A20257320211F
:102790000D0A0000796F752063686F6F7365205BA9
:1027A000355D646F776C6F2070726F6772616D203A
:1027B000746F206F75747369646520666C617368EB
:1027C00020210D0A00000000706C656173652065B2
:1027D0006E74657220746865206E756D6520283191
:1027E0002D3929206F6620666C61736820210D0ADF
:1027F00000000000796F752063686F6F7365205B60
:10280000365D7573652070726F6772616D20696ED9
:10281000206F75747369646520666C61736820212C
:102820000D0A0000796F752063686F6F7365205B18
:10283000375D7265737461727420210D0A000000A7
:10284000005000080600000015000000646174617B
:102850006C656E2069732025640D0A005645522D63
:1028600025642E25642E25642D25642F25642F25AF
:10287000642D25643A2564006E6577207665727351
:10288000696F6E206973206F6B0D0A007468652094
:1028900074797065206F662076657273696F6E203B
:1028A00069732077726F6E672021202120210D0A25
:1028B00000000000746865206C656E206F662076ED
:1028C000657273696F6E2069732077726F6E67200F
:1028D00021202120210D0A0022A001F013FD2FA0AC
:1028E00001F010FD3CE03AA001F00CFD38E03FA003
:1028F00001F008FD34E04648007800F04000002870
:102900002ED0012D29D12078312822DB20783928BA
:102910001FDC207830383F49C1F800040846D0F861
:1029200000143DA001F0EEFC3A48D0F800244948DC
:1029300050F8221048A001F0E5FC3548006840F04E
:102940000100334908600846006820F04000086034
:1029500006E01FA001F0D6FC02E024A001F0D2FCAA
:1029600007B0F0BD796F752063686F6F7365205B8A
:10297000355D7573652070726F6772616D20696E69
:10298000206F75747369646520666C617368202CB0
:10299000256420626C6F636B0D0A000077697468B0
:1029A00020586D6F64656D20436F6D6D756E696342
:1029B0006174696F6E2070726F746F636F6C202C1E
:1029C0002062696E2066696C6520210D0A00000096
:1029D000746865206E756D62657220697320777208
:1029E0006F6E672021202120210D0A007468652068
:1029F0006C656E206F662064617461206973207756
:102A0000726F6E672021202120210D0A0000000036
:102A1000040000205C010020796F752063686F6FEF
:102A20007365205B365D646F776C6F2070726F67C3
:102A300072616D20746F206F7574736964652066B0
:102A40006C617368202C256420626C6F636B0D0AC7
:102A50000000000010010020094F54415F496E66DC
:102A60006F2E466972656C656E5B5570446174616A
:102A7000412E5732355136345F426C6F636B4E4294
:102A80005D203D20256420626C6F636B0D0A0000A1
:102A900010B50CA001F036FC0BA001F033FC0FA028
:102AA00001F030FC12A001F02DFC18A001F02AFC6E
:102AB0001DA001F027FC25A001F024FC2CA001F0B2
:102AC00021FC10BD0D0A00005B315D65726173650C
:102AD000204120626C6F636B0D0A00005B325D6405
:102AE0006F776C6F204120626C6F636B0D0A000082
:102AF0005B335D736574204120626C6F636B20767D
:102B0000657273696F6E0D0A000000005B345D67CB
:102B10006574204120626C6F636B20766572736907
:102B20006F6E0D0A000000005B355D646F776C6F9F
:102B30002070726F6772616D20746F206F7574738F
:102B400069646520666C6173680D0A005B365D75AB
:102B500073652070726F6772616D20696E206F758A
:102B6000747369646520666C6173680D0A00000007
:102B70005B375D7265737461727420210D0A000009
:102B800000BFFEE700B587B04FF4A06001F0B2FAD5
:102B90000421144800F062FD1348009000200190C9
:102BA000124802900020039040F2011004904FF46C
:102BB0000050059000208DF8180001208DF81900B4
:102BC00000208DF81A006A460421064800F07EFDB8
:102BD0000421044800F029FD0421024800F00CFD06
:102BE00007B000BD00000240043801406C05002021
:102BF00000BFFEE710B5042001F070FB10BD00B56A
:102C0000034603E04FF47A7000F006F8181EA3F1B3
:102C100001018BB2F6D100BD6C2141434FF0E0229F
:102C20005161002191611146096941F00101116171
:102C300000BF4FF0E021096901F480310029F8D08C
:102C40004FF0E021096921F001014FF0E02211610C
:102C5000704770B505460E4600F0F8FE002409E006
:102C60004FF0006101EB852101EB842000F072FE42
:102C7000601C84B2B442F3DB00F056FE70BD70B548
:102C800006460C46154600F0E1FE06E03046216897
:102C900000F0FEFE2D1F361D241D002DF6D170BD47
:102CA00000BFFEE710B540F2036001F023FA4023B5
:102CB00003221421084800F0B1FF802303221421CD
:102CC000054800F0ABFF4021034800F043FF80219E
:102CD000014800F03FFF10BD000C014070B50546F3
:102CE0000026072418E04021264800F031FF02208A
:102CF000FFF792FF4021234800F02CFF802121485C
:102D000000F0E2FF18B10120A0403043C6B202201B
:102D1000FFF782FF601E44B2002CE4DA402119481C
:102D200000F016FF0220FFF777FFB5B180211548AC
:102D300000F00EFF4021134800F00CFF0220FFF7C7
:102D40006BFF40210F4800F003FF80210D4800F089
:102D500001FF0220FFF760FF11E08021094800F029
:102D6000F9FE4021074800F0F5FE0220FFF754FF6E
:102D70004021044800F0ECFE0220FFF74DFF3046F2
:102D800070BD0000000C014070B5054607241CE032
:102D90004021134800F0DCFE0120A040284020B173
:102DA00080210F4800F0D6FE03E080210C4800F09F
:102DB000CFFE0220FFF730FF4021094800F0CAFE95
:102DC0000220FFF729FF601E44B2002CE0DA402108
:102DD000034800F0BDFE8021014800F0BBFE70BD3D
:102DE000000C014010B540210A4800F0B3FE8021DC
:102DF000084800F0AFFE0220FFF70EFF80210548D3
:102E000000F0A6FE0220FFF707FF4021014800F076
:102E10009FFE10BD000C014010B54021074800F096
:102E200099FE8021054800F093FE0220FFF7F4FE92
:102E30008021024800F08EFE10BD0000000C014011
:102E400010B5044600BF601E04B20220FFF7E4FE86
:102E50008021104800F038FF08B1002CF3DA002C74
:102E600001DA012010BD40210A4800F073FE022063
:102E7000FFF7D2FE8021074800F026FF08B10220AC
:102E8000F0E74021034800F063FE0220FFF7C4FE94
:102E90000020E7E7000C014010B504462068B0F1BF
:102EA000005F0FD30949206888420BD82068FDF7DE
:102EB000CDF9074960680860FFF708FA0448006820
:102EC000804702E003A001F01DFA10BDFF4F002073
:102ED00008000020676F20746F204120626C6F63D0
:102EE0006B206572726F7220210D0A002DE9F0418E
:102EF00007460D461646FFF775FFA020FFF744FF73
:102F00006420FFF79DFF10B10120BDE8F081384635
:102F1000FFF73AFF6420FFF793FF08B10220F4E7C0
:102F2000FFF760FFA120FFF72FFF6420FFF788FF66
:102F300008B10320E9E7002405E00120FFF7CEFEF9
:102F40002855601CC4B2701EA042F6DC0020FFF7BA
:102F5000C5FE711E6854FFF75FFF0020D5E7000033
:102F600010B550210448FDF7CFFA50220249002045
:102F7000FFF7BCFF10BD00000C01002070B5084D2C
:102F800000240AE005EB04112207100E00F00AF8F5
:102F90000620FFF734FE601CC4B2052CF2D370BDCE
:102FA0000C01002070B506460D46FFF71BFFA02060
:102FB000FFF7EAFE6420FFF743FF08B1012070BD70
:102FC0003046FFF7E1FE6420FFF73AFF08B1022028
:102FD000F5E700240BE0285DFFF7D6FE6420FFF73D
:102FE0002FFF10B1E01CC0B2E9E7601CC4B2102C86
:102FF000F1DBFFF711FF0020E1E700BFFEE700BFB4
:10300000FEE70000BFF34F8F0648006800F4E06061
:1030100005490843001D03490860BFF34F8F00BFF7
:10302000FEE700000CED00E00000FA0500BFFEE73F
:1030300000B587B040F20C6001F05CF840F202602D
:1030400001F058F8A02303221821114800F0E6FDF2
:103050004023032204210E4800F0E0FD0D4801F05A
:1030600085F84FF4827000900020019002904FF498
:103070000070039000200490059006906946054872
:1030800001F0A8F8034801F065F807B000BD0000A2
:10309000000801400030014010B5044600BF022185
:1030A0000A4801F08FF80128F9D12146074801F0BC
:1030B0005AF800BF0121054801F084F80128F9D130
:1030C000024801F04CF8C0B210BD000000300140D1
:1030D00070B505460E46002405E0FF20FFF7DCFF33
:1030E0002855601C84B2B442F7DB70BD70B505464C
:1030F0000E46002404E0285DFFF7CEFF601C84B27A
:10310000B442F8DB70BD00BFFEE770471CB5414814
:10311000006840F001003F49086000BF3D4800687A
:1031200000F002000028F9D03A48406800F00C0096
:10313000082838D100BF0020019002E00198401C0F
:10314000019001985028F9D33248406800900098C7
:1031500020F0F0000090009840F0800000902D4991
:10316000009848600020019002E00198401C019006
:1031700001985028F9D3274840680090009820F023
:10318000F0000090009840F09000009021490098D5
:1031900048600020019002E00198401C01900198D5
:1031A0005028F9D300BF1B48406820F0030019499C
:1031B0004860642000F0F9F9164800681649084094
:1031C000144908600846406814490840114948609D
:1031D00008460068104908400E4908600846006823
:1031E00020F480200860084640680D4908400949DD
:1031F00048600846006808490840064908604FF4DE
:103200001F00886001F066F800214FF0006000F0B8
:10321000D3FE1CBD00100240FFFFF6FE0C00FFE8CD
:10322000FFFF00F70648011F486588654830C865FC
:103230000448496D086000200149091F0880704753
:10324000701500206C05002010B52D492D4801F0A7
:103250004CF9002852D004212A4801F02AF92948C3
:1032600001F0C6F80421284800F0F9FA40F20111F3
:10327000081A264909880844244908800846008815
:10328000401E234908442149496D48601F48406D4C
:1032900008301E4948650846406DC96D884203D113
:1032A0001A48001D011F486518480088C0F50060D5
:1032B000FF2807DD15480088154908441349496D62
:1032C000086006E012481149496D086000200F4966
:1032D000088004210C4800F076F940F20112042124
:1032E000094800F0A9FA0948406D0421026806481F
:1032F00000F083FA0421044800F07EF910BD0000BC
:103300000403040000380140000002406C15002056
:103310006C05002000BFFEE710B5044640F20E60C9
:1033200000F0E8FE40F2026000F0E4FE4FF40073AB
:10333000032218211F4800F071FC4FF48063032220
:1033400004211C4800F06AFC1B4801F05BF8214690
:10335000194801F005F80021174801F0E2F80021B2
:10336000154801F0FEF80021134801F0EAF80821A1
:10337000114801F0EEF804210F4801F0DAF840217D
:103380000D4801F087F84FF4A06000F00BFE00221A
:103390001146252000F0B0FD4FF44171064801F0C0
:1033A00097F8FFF73FFFFFF7EDFB034801F07CF8CC
:1033B00010BD0000000801400038014010B500F0C9
:1033C0009FF81021054800F0C3FB0620FFF764FEBC
:1033D0001021024800F0BEFB10BD000000080140B3
:1033E00038B50446D8208DF80000A0B28DF8010051
:1033F0002004000A8DF802002004C0B28DF80300FA
:1034000000F07EF8FFF7DAFF1021074800F0A0FB7C
:1034100004216846FFF76AFE1021034800F09AFB7A
:1034200000F06EF838BD00000008014010B540F211
:103430000C6000F05FFE40F2026000F05BFE1023C3
:1034400003221946044800F0E9FB1021024800F06D
:1034500081FBFFF7EDFD10BD0008014038B50546C2
:103460000C4602208DF80000C4F30F208DF80100F7
:1034700024F07F408DF802002002C0B28DF80300D6
:1034800000F03EF8FFF79AFF1021084800F060FBBB
:1034900004216846FFF72AFE4FF480712846FFF7A3
:1034A00025FE1021014800F055FB38BD0008014001
:1034B000F8B506460C46154603208DF80000200C92
:1034C0008DF80100200A8DF80200E0B28DF80300AB
:1034D00000F016F8FFF772FF1021084800F038FBE3
:1034E00004216846FFF702FEA9B23046FFF7F0FD5F
:1034F0001021024800F02EFBF8BD0000000801403A
:1035000010B500BF1021094800F022FB0520FFF78D
:10351000C3FDFF20FFF7C0FD04461021034800F063
:1035200019FB04F001000028ECD110BD0008014097
:1035300070B502460B46002041F2210414E01578D4
:1035400080EA052000210CE000F400451DB184EA6A
:103550004005A8B203E04FF6FF7505EA40004D1C98
:10356000E9B20829F0DB521C1D1EA3F10106B3B21B
:10357000E5D170BD490050EAC12018BF04204A0DB2
:1035800018BF40F0010040F2FF72B2EB515F08BF7C
:1035900040F00200012808BF0520704730380A2893
:1035A00001D2012070470020704708B5002100912A
:1035B00002E00099491C009100EB8001009AB2EBF7
:1035C000410FF6D308BD70B505460C462146284686
:1035D00000F026F908B900BFFEE704EB8400810083
:1035E00005F10800405820F0010104EB840082003E
:1035F00005F10800815070BD70B505460C462146A6
:10360000284600F00DF908B900BFFEE704EB84007E
:10361000810005F10800405840F0010104EB8400EE
:10362000820005F10800815070BD70B505460C465A
:103630002146284600F0F4F808B900BFFEE704EB85
:103640008400810005F10800405820F0200104EBBF
:103650008400820005F10800815070BD70B50446F9
:103660000D462946204600F0DBF808B900BFFEE70A
:1036700005EB8500810004F10800405820F00101AD
:1036800005EB8500820004F108008150002105EB64
:103690008500820004F10800815005EB850082005E
:1036A00004F10C00815005EB8500820004F110004C
:1036B000815005EB8500820004F1140081506068A0
:1036C000AA000F2191400843606070BD2DE9F041D0
:1036D00004460D4616462946204600F0A1F808B9D2
:1036E00000BFFEE705EB8500820004F110003168A1
:1036F000815005EB8500820004F11400B16881500F
:10370000308A81B205EB8500820004F10C00815003
:1037100005EB8500810004F10800475827F47C5729
:10372000F1687068084371690843074305EB850039
:10373000810004F108004750307E01280ED105EBCE
:103740008500810004F10800405840F0400105EB7D
:103750008500820004F1080081500DE005EB850032
:10376000810004F10800405820F0400105EB85007D
:10377000820004F108008150707E01280ED105EB13
:103780008500810004F10800405840F0800105EBFD
:103790008500820004F1080081500DE005EB8500F2
:1037A000810004F10800405820F0800105EB8500FD
:1037B000820004F108008150B07E70B905EB8500ED
:1037C000810004F10800405820F0100105EB85004D
:1037D000820004F1080081500DE005EB85008100B6
:1037E00004F10800405840F0100105EB850082000C
:1037F00004F108008150BDE8F08170B506460C4622
:1038000015462146304600F00BF808B900BFFEE728
:1038100004EB8400810006F11400455070BD0000E7
:1038200002460120034B9A4202D1042900DD002008
:10383000704700000004024070B506460C4615466D
:1038400021463046FFF7ECFF08B900BFFEE7A9B2FA
:1038500004EB8400820006F10C00815070BD70B54D
:1038600005460C4621462846FFF7DAFF08B900BF97
:10387000FEE704EB8400810005F10C00405870BDA8
:1038800000B50346012200BF00F00CF802465B1EA3
:10389000012A01D1002BF7D1012A00D104221046C0
:1038A00000BD000000200A49C96801F0010109B10A
:1038B00001200CE00649C96801F0100109B103209C
:1038C00005E00349C96801F0040101B10220704715
:1038D0000020024000B50346012200BF00F00CF8B2
:1038E00002465B1E012A01D1002BF7D1012A00D12B
:1038F0000422104600BD000000200A49C96C01F0F6
:10390000010109B101200CE00649C96C01F0100168
:1039100009B1032005E00349C96C01F0040101B1BC
:1039200002207047002002400848006940F08000F3
:103930000649086106480088B0F5007F04D90846AA
:10394000006D40F0800008657047000000200240D4
:10395000E0F7FF1F30B5054639480088B0F5007F15
:103960004CD93848854220D24FF47020FFF788FFA9
:103970000446002C61D13448006940F0020032490D
:10398000086108464561006940F04000086100BFD9
:1039900000BF4FF47020FFF773FF04462A48006908
:1039A00020F002002849086147E04FF47020FFF73B
:1039B00091FF0446002C40D12348006D40F00200E6
:1039C0002149086508464565C06900F0020008B154
:1039D000084645611C48006D40F040001A490865E2
:1039E00000BF00BF4FF47020FFF774FF0446164875
:1039F000006D20F00200144908651EE04FF47020AD
:103A0000FFF73EFF0446C4B90F48006940F00200CA
:103A10000D49086108464561006940F040000861B1
:103A200000BF00BF4FF47020FFF72AFF044606488E
:103A3000006920F0020004490861204630BD000002
:103A4000E0F7FF1FFFFF0708002002400C48006955
:103A500000F0800020B10B48094948600A484860DE
:103A60000A480088B0F5007F09D90548006D00F0CC
:103A7000800020B103480249486403484864704705
:103A80000020024023016745AB89EFCDE0F7FF1F1F
:103A900070B504460D4600262A480088B0F5007F20
:103AA00035D92948844219D24FF47020FFF7E8FE37
:103AB0000646002E43D12548006940F00100234905
:103AC000086125604FF47020FFF7DAFE06461F48B4
:103AD000006920F001001D49086130E04FF47020BA
:103AE000FFF7F8FE064656BB1848006D40F001008F
:103AF0001649086525604FF47020FFF7EBFE064677
:103B00001248006D20F001001049086517E04FF4DD
:103B10007020FFF7B5FE06468EB90C48006940F0EC
:103B200001000A49086125604FF47020FFF7A8FEE4
:103B300006460648006920F0010004490861304645
:103B400070BD0000E0F7FF1FFFFF070800200240E4
:103B5000416170470161704710B504462D49601AF4
:103B60008C422FD009DC2C48204480B1B0F5806F06
:103B700016D0B0F5006F49D11BE0B0F5806F2AD0A8
:103B8000B0F5006F30D0B0F5406F3FD135E040F276
:103B9000023000F0CFFA40F2023000F0BBFA36E01B
:103BA00040F2033000F0C6FA40F2033000F0B2FAFF
:103BB0002DE04FF4417000F0BDFA4FF4417000F079
:103BC000A9FA24E040F2053000F0B4FA40F20530E2
:103BD00000F0A0FA1BE040F2063000F0ABFA40F231
:103BE000063000F097FA12E040F2073000F0A2FA37
:103BF00040F2073000F08EFA09E04FF4427000F016
:103C000099FA4FF4427000F085FA00E000BF00BF5F
:103C100010BD00000014014000F8FEBFF0B50446DE
:103C200016460025002201F00F0501F0100707B12C
:103C3000354300201EE0012787401F40C7B122689E
:103C40004FEA800C0F2707FA0CF7BA43870005FAF2
:103C500007F73A43282904D1012787401F406761AD
:103C600005E0482903D1012787401F4027612260D2
:103C7000471CB8B20828DED3082022E0012787407D
:103C80001F40E7B16268A0F108074FEA870C0F27D1
:103C900007FA0CF7BA43A0F10807BF0005FA07F7C7
:103CA0003A43282904D1012787401F40676105E076
:103CB000482903D1012787401F4027616260471CC4
:103CC000B8B21028DAD3F0BD02469068084008B1B7
:103CD000012070470020FCE74FF46120FFF71CFB38
:103CE000FEF788FFFEF7DEFFFFF7A0FB0520FEF7DB
:103CF00086FFFFF735F9FEF795FAD6E06B480078B6
:103D000000F0010000287CD06948D0F80024694800
:103D100050F8221068A000F0F5FA6548D0F80014B9
:103D2000644810F8210000F00300002877D12C210E
:103D30001420FEF78EFF0020644908801AE05C48DA
:103D4000B0F8000402046148008802EB80214FF4BF
:103D500080625748FFF7ACFB5C4909885C4A02EB7C
:103D6000812052145249FEF78AFF58480088401CAF
:103D7000564908804E48D0F800144E4850F82100AB
:103D800052490988B1EB902FD9D34948D0F8001493
:103D9000484830F82100C0F3090010B34448B0F897
:103DA000000403044948008803EB80214048D0F810
:103DB0000034404830F82300C0F309023C48FFF7C4
:103DC00077FB3B49D1F800343A4931F82310C1F36D
:103DD00009023E4909883E4B03EB81203449FEF736
:103DE0004EFF3348D0F8000428B900203149091F9C
:103DF0000860FFF7C3F800BFBFF34F8F3548006876
:103E000001E015E00BE000F4E06033490843001DD9
:103E100030490860BFF34F8F00BF00BFFEE72FA0FF
:103E200000F070FA2148006820F001001F49086086
:103E30002F48806D2E49496D88421BD02C4A926DC7
:103E400092882B4B9B6D1B88D21A521C91B2284A28
:103E5000926D1068FEF784FA2548806D0830244979
:103E600088650846806DC96D884203D12048001DD1
:103E7000011F88650D48007800F00200A8B10A20F3
:103E8000FEF7BDFE0A48D0F80404642806D319A042
:103E900000F038FA00200649C1F804040448D0F8BC
:103EA0000404401C0249C1F8040427E70400002070
:103EB0005C0100201001002020636F64652073699D
:103EC0007A65203A2025640D0A00000000000020D9
:103ED000005000080CED00E00000FA0520636F645C
:103EE000652073697A65206572726F720D0A000031
:103EF0006C150020430000002DE9F04103460D46FB
:103F0000164600240027A0462448006800F4E0601C
:103F1000B0F5A06F15D006DCB0F5407F18D0B0F535
:103F2000806F19D110E0B0F5C06F06D0B0F5E06F2A
:103F300012D100274FF0040815E001274FF00308C5
:103F400011E00227B8460EE003274FF001080AE00F
:103F500004274FF0000806E04FF4A06000F022F8BC
:103F60000227B84600BF00BFC7F1040005FA00F4FD
:103F7000C8F104010F20C840304004432401084820
:103F8000C45403F01F01012088405911890001F138
:103F9000E021C1F80001BDE8F08100000CED00E077
:103FA00000E400E002490143024A1160704700004A
:103FB0000000FA050CED00E0034A0A400243034BFF
:103FC0001A60BFF34F8F704780FFFF1F08ED00E0BE
:103FD0002DE9F04F8BB00746002009903EA090E8F5
:103FE000004CC068CDE905BECDF810A007900FF2D7
:103FF000EC0ADAE9000ACDE9020A0FF2E00ADAE98E
:10400000000ACDE9000A38484068C0F381000A90F0
:104010000A9820B1012804D0022829D103E03349AD
:1040200028E0324926E03048406800F48038B8F58E
:10403000803F09D12D4C2C48406800F40039B9F577
:10404000003F02D1641000E0294C27484068C0F3CB
:1040500083422548406800F0006008B142F0100239
:104060000F2A01D2921C00E0521C04FB02F101E075
:104070001E4900BF00BF1C484068C0F3031504A8D8
:10408000465D21FA06F318484068C0F3022502A8ED
:10409000465D23FA06FC14484068C0F3C2251DF8AB
:1040A000056023FA06F0089037B1012F06D0022FE1
:1040B00006D0032F0AD106E0099108E0099306E033
:1040C000CDF824C003E00898099000E000BF00BFCD
:1040D00009980BB0BDE8F08F000000000000000060
:1040E00001020304060708090010024000127A00CA
:1040F00000093D00064A02EB9011096800F01F0319
:1041000001229A401143024B03EB90121160704759
:1041100000100240064A02EB9011096800F01F03EC
:1041200001229A409143024B03EB901211607047B9
:1041300000100240064A02EB9011096800F01F03CC
:1041400001229A401143024B03EB90121160704719
:1041500000100240016841F04001016070470146D3
:10416000C86880B27047C1607047000010B504464F
:104170001348204470B1B0F5806F14D0B0F5784F7B
:104180001AD14FF44370FFF7D5FF4FF44370FFF798
:10419000C1FF12E040F20E40FFF7CCFF40F20E40AC
:1041A000FFF7B8FF09E040F20F40FFF7C3FF40F20E
:1041B0000F40FFF7AFFF00E000BF00BF10BD0000E1
:1041C00000C8FFBF02469068084008B10120704750
:1041D0000020FCE702460020106800F441500B6804
:1041E00018434B6818438B681843CB6818430B6916
:1041F00018434B6918438B6918431060D36923F443
:104200000063D3617047000008B5002000212E4AEA
:10421000126842F480322C4B1A6000BF401C2A4ABC
:10422000126802F4003119B94FF6FF729042F5D1CD
:10423000254A126802F400320AB900BFFEE7224A9A
:104240005268214B5A601A4652685A601A465268A0
:1042500042F480625A601A46526822F440325A6030
:104260001A46526842F440325A601A465268174B56
:104270001A40154B5A601A465268154B1A43124B96
:104280005A601A46126842F080721A6000BF0E4AE5
:10429000126802F00072002AF9D00B4A52680092AC
:1042A000009A22F003020092009A42F00202009269
:1042B000054B009A5A6000BF034A526802F00C0294
:1042C000082AF9D108BD000000100240FFFFC3F723
:1042D0000000280810B5FFF797FF10BD042808D18B
:1042E0004FF0E021096941F004014FF0E022116133
:1042F00007E04FF0E021096921F004014FF0E022CE
:10430000116170470FB438B505A800901248009AA3
:104310000499FBF7BFFF0020009000240DE000BFD0
:1043200007210E4800F0C5F80128F9D10A48015DBF
:104330000A4800F062F8601C84B20748FCF780F875
:10434000A042ECD800BF0621044800F0B2F80128D2
:10435000F9D138BC5DF814FB6C0D00200038014029
:104360002DE9F04704460D460027B846B946002619
:104370001D49601A8C421CD006DC1C48204470B1D8
:10438000B0F5806F1FD10FE0B0F5806F16D0B0F59B
:104390006C4F18D10320FFF71BFE074614E00220E4
:1043A000FFF716FE07460FE00220FFF711FE074653
:1043B0000AE00220FFF70CFE074605E00220FFF7A7
:1043C00007FE074600E000BF00BF07EB5500B0FB4B
:1043D000F5F64FF6F07006EA000806F00F0948EA15
:1043E0000900A060BDE8F087004C004000BCFFBFA2
:1043F00001464868C0F308007047C1F308024260F4
:104400007047000010B504462049601A8C4228D03D
:1044100006DC1F48204490B1B0F5806F33D117E01F
:10442000B0F5806F26D0B0F56C4F2CD140F20E3035
:10443000FFF780FE40F20E30FFF76CFE24E040F202
:104440001140FFF777FE40F21140FFF763FE1BE0DB
:1044500040F21240FFF76EFE40F21240FFF75AFEA4
:1044600012E040F21340FFF765FE40F21340FFF701
:1044700051FE09E040F21440FFF75CFE40F21440A8
:10448000FFF748FE00E000BF00BF10BD004C004039
:1044900000BCFFBF426922F040024261426901F064
:1044A00040031A4342617047C16841F40051C16042
:1044B000704710B5024602EB9110006801F01F042E
:1044C0000123A340184008B1012010BD0020FCE7E3
:1044D00010B5C1F38912825801F01F040123A340D3
:1044E0001A43C1F38913C25010BD70B502460023B0
:1044F0000024C1F38910105801F01F060125B540B2
:1045000000EA050302EB91500068C1F3044601255F
:10451000B54000EA050414B10BB1012070BD0020C4
:10452000FCE7C26822F4C062C260C2680A43C2608B
:1045300070470A460021C16821F004011143C1609F
:104540007047026922F44052026102690A43026123
:1045500070470A460021C16821F008011143C1607B
:104560007047C26822F48052C260C2680A43C260C7
:104570007047000010B500290AD00878002807D03D
:1045800005487844FDF73EFA002801D0002010BD10
:104590000248784410BD0000BE010000B6010000D2
:1045A00010B500290AD00878002807D005487844BB
:1045B000FDF728FA002801D0002010BD02487844F9
:1045C00010BD0000AE010000A6010000FCF76EBCAB
:1045D000FCF7A2BD000000000000000030313233C3
:1045E0003435363738394142434445464030580027
:1045F0003031323334353637383961626364656659
:1046000040307800040000080000000000000002B4
:10461000000100001030313233343536373839611B
:104620006263646566787000303132333435363712
:10463000383941424344454658500000024000008A
:10464000000000A00000000005400000000000C8BD
:10465000000000000C4000000000409C0000000032
:10466000194000000020BCBE0000000034400000E3
:10467000BFC91B8E00000004B5400000504BCFD0D6
:104680006607E2CF010000006C4100003E8251AAA3
:10469000DFEEA73401000000D9420000DCB5A0E243
:1046A0003A301F97FFFFFFFFB4450000FD25A0C86B
:1046B000E9A3C14FFFFFFFFFFF3F000000000080A4
:1046C00000000000FF3F000000000080000000002C
:1046D000796F752063686F6F7365205B325D646FFF
:1046E000776C6F204120626C6F636B207769746810
:1046F00020586D6F64656D20436F6D6D756E6963D5
:104700006174696F6E2070726F746F636F6C202CB0
:104710002062696E2066696C6520210D0A00000028
:104720006C480008000000200C0000004001000858
:10473000784800080C000020241C00005C010008E0
:104740001C00000043000000F8FFFFFF0C00000009
:104750000E0000000F0000002E00000010010000FD
:1047600043000000F8FFFFFF004040404040404051
:104770004040414141414140404040404040404034
:1047800040404040404040404005020202020202D8
:104790000202020202020202022020202020202027
:1047A000202020020202020202029090909090903B
:1047B00010101010101010101010101010101010F9
:1047C000101010100202020202028888888888886D
:1047D0000808080808080808080808080808080859
:1047E0000808080802020202400000000000000061
:1047F00000000000000000000000000000000000B9
:1048000000000000000000000000000000000000A8
:104810000000000000000000000000000000000098
:104820000000000000000000000000000000000088
:104830000000000000000000000000000000000078
:104840000000000000000000000000000000000068
:104850000000000000000000000000000000000058
:104860000000000000000000000000000000000048
:08487000000000000000000040
:0400000508000105E9
:00000001FF
